:040000000DEF00F010
:04000800EAEF03F028
:10001800FF0007EF0CF00501C051800BC96FC051FC
:10002800C025CF6FBFAF1BEF00F01DEF00F01EEF34
:1000380000F0CF81CF51D8B424EF00F026EF00F0C4
:1000480039EF00F0CF29D8A42CEF00F02EEF00F004
:1000580036EF00F0000EBD6F000EBE6F000EBF6FD2
:10006800000EC06FBF8F41EF00F0000EBD6F000E95
:10007800BE6F000EBF6F000EC06FC451800BC91B4E
:10008800C451C425CE6FC3AF4CEF00F04EEF00F063
:100098004FEF00F0CE81CE51D8B455EF00F057EFB6
:1000A80000F06AEF00F0CE29D8A45DEF00F05FEF12
:1000B80000F067EF00F0000EC16F000EC26F000E77
:1000C800C36F000EC46FC38F72EF00F0000EC16FD4
:1000D800000EC26F000EC36F000EC46FCE51D8B4AD
:1000E80078EF00F07AEF00F082EF00F0CF51D8A45B
:1000F80080EF00F082EF00F08CEF00F0000EBD6F93
:10010800000EBE6F000EBF6F000EC06F22EF02F030
:10011800C351BD03F3C4D4F5F4C4D5F5D451CA6FA3
:10012800CB6BCC6BCD6BD551D06FD16BD26BD36B06
:10013800C251BE03F3C4D4F5F4C4D5F5D451CA27CB
:10014800000ECB23CC23CD23D551D027000ED123AD
:10015800D223D323C151BF03F3C4D4F5F4C4D5F5D6
:10016800D451CA27000ECB23CC23CD23D551D02779
:10017800000ED123D223D323CCC5CDF5CBC5CCF5E6
:10018800CAC5CBF5CA6BC151BE03F3C4D4F5F4C4D8
:10019800D5F5D451CA27D551CB23000ECC23000E58
:1001A800CD23C251BD03F3C4D4F5F4C4D5F5D4515D
:1001B800CA27D551CB23000ECC23000ECD23CCC5A6
:1001C800CDF5CBC5CCF5CAC5CBF5CA6BC151BD03BE
:1001D800F3C4D4F5F4C4D5F5D451CA27D551CB23EB
:1001E800000ECC23000ECD23C351BE03F3C4D4F5B7
:1001F800F4C4D5F5D451D027D551D123000ED2233C
:10020800000ED323C251BF03F3C4D4F5F4C4D5F50B
:10021800D451D027D551D123000ED223000ED32399
:10022800C351BF03F3C4D4F5F4C4D5F5D451C56F95
:10023800D551C66FC76BC86BC7C5C8F5C6C5C7F566
:10024800C5C5C6F5C56BC551D027C651D123C75101
:10025800D223C851D323CAC5C5F5CBC5C6F5CCC56D
:10026800C7F5CDC5C8F5190E3FEF01F0D890C833D2
:10027800C733C633C533E82E3AEF01F0C551D0274E
:10028800C651D123C751D223C851D323CCC5CDF5EC
:10029800CBC5CCF5CAC5CBF5CA6BCE51CFC5C5F514
:1002A800C66BC527000EC623820EC525D46FFF0E68
:1002B800C621D56F75EF01F0D890D037D137D23736
:1002C800D337CDAF6AEF01F06CEF01F06DEF01F0BD
:1002D800D081D890CA37CB37CC37CD37D407D8A000
:1002E800D507D2AF7AEF01F07CEF01F060EF01F0B3
:1002F800CE6BCDAF82EF01F084EF01F0A8EF01F0F3
:10030800FF0ECA15C56FFF0ECB15C66FFF0ECC15B5
:10031800C76F7F0ECD15C86FC551C611C711C8115B
:10032800D8B499EF01F09BEF01F09FEF01F0010EB7
:10033800CE6FA8EF01F0D0A1A4EF01F0A6EF01F075
:10034800A8EF01F09BEF01F0CE51D8B4AEEF01F069
:10035800B0EF01F0D4EF01F0010ED027000ED12349
:10036800D223D323D3A1BBEF01F0BDEF01F0D4EF2B
:1003780001F0D0C5C5F5D1C5C6F5D2C5C7F5D3C5F9
:10038800C8F5C835C833C733C633C533C5C5D0F576
:10039800C6C5D1F5C7C5D2F5C8C5D3F5D44BD52B3D
:1003A800D5BFDFEF01F0D55108E1D429D8A0DFEFA0
:1003B80001F0E1EF01F0EBEF01F0000ED06F000E5D
:1003C800D16F800ED26F7F0ED36F18EF02F0D5BFBA
:1003D800F8EF01F0D55106E1D405D8B0F6EF01F0F9
:1003E800F8EF01F003EF02F0000ED06F000ED16FAE
:1003F800000ED26F000ED36FC96B18EF02F0D4C590
:10040800CFF5FF0ED017FF0ED1177F0ED217000EB3
:10041800D317CFA112EF02F014EF02F015EF02F09C
:10042800D28FD890CF31D36FC951D313D0C5BDF572
:10043800D1C5BEF5D2C5BFF5D3C5C0F5120012505F
:10044800800B1F6E12501224266E11AE2EEF02F092
:1004580030EF02F031EF02F026802650D8B437EFA3
:1004680002F039EF02F04DEF02F02628D8A43FEF52
:1004780002F041EF02F049EF02F0000E0F6E000E9D
:10048800106E000E116E000E126E118E126A55EF6C
:1004980002F0000E0F6E000E106E000E116E000EB0
:1004A800126E1650800B1F1A16501624276E15AEA2
:1004B80060EF02F062EF02F063EF02F0278027504E
:1004C800D8B469EF02F06BEF02F07FEF02F0272853
:1004D800D8A471EF02F073EF02F07BEF02F0000E88
:1004E800136E000E146E000E156E000E166E158E2D
:1004F800166A87EF02F0000E136E000E146E000EDF
:10050800156E000E166E1350141015101610D8A480
:1005180090EF02F092EF02F0AAEF02F0000E0F6ED9
:10052800000E106E000E116E000E126E800E11126B
:100538007F0E12121F5012120FC50FF510C510F5BD
:1005480011C511F512C512F5E9EF03F02650D8A42C
:10055800B0EF02F0B2EF02F0BCEF02F0000E0F6E47
:10056800000E106E000E116E000E126EE9EF03F011
:10057800275026C517F5186A175E000E185A7F0E01
:100588001724206E000E1820216E0FC51BF510C50C
:100598001CF511C51DF512C51EF5000E0F6E000ED7
:1005A800106E000E116E000E126E000E226E000EFE
:1005B800236E000E246E000E256E276A1CEF03F0D2
:1005C8002750D8B4EAEF02F0ECEF02F003EF03F0A3
:1005D800D8901B361C361D361E36D8900F3610366E
:1005E8001136123625AEFBEF02F0FDEF02F0FEEFFA
:1005F80002F00F80D8902236233624362536135041
:100608001B5C14501C5815501D5816501E58D8A065
:1006180010EF03F012EF03F01BEF03F0258C1350DB
:100628001B5E14501C5A15501D5A16501E5A272A64
:10063800190E276422EF03F024EF03F0E4EF02F031
:100648001B501C101D101E10D8B42DEF03F02FEFF7
:1006580003F047EF03F0228047EF03F0D8900F36FE
:1006680010361136123625AE3CEF03F03EEF03F09C
:100678003FEF03F00F80D8902236233624362536F4
:100688002006D8A0210611AE4CEF03F04EEF03F080
:1006980032EF03F0276A25AE54EF03F056EF03F06C
:1006A8007AEF03F0FF0E2214176EFF0E2314186E54
:1006B800FF0E2414196E7F0E25141A6E1750181089
:1006C80019101A10D8B46BEF03F06DEF03F071EF47
:1006D80003F0010E276E7AEF03F00FA076EF03F018
:1006E80078EF03F07AEF03F06DEF03F02750D8B4FA
:1006F80080EF03F082EF03F0A6EF03F0010E0F2660
:10070800000E10221122122212A08DEF03F08FEF9B
:1007180003F0A6EF03F00FC517F510C518F511C5BE
:1007280019F512C51AF51A341A3219321832173255
:1007380017C50FF518C510F519C511F51AC512F525
:10074800204A212A21BEB1EF03F0215008E12028D8
:10075800D8A0B1EF03F0B3EF03F0BEEF03F0000E43
:10076800216E2068000E0F6E000E106E000E116EC6
:10077800000E126E21BECBEF03F0215006E12004DB
:10078800D8B0C9EF03F0CBEF03F0D7EF03F0216A3D
:10079800000E206E000E0F6E000E106E000E116E11
:1007A800000E126E1F6A20C526F526A0DEEF03F0A4
:1007B800E0EF03F0E3EF03F0118EE4EF03F0119E96
:1007C800D8902630126E9EEF02F01200FAC42BF574
:1007D800FBC42CF5F6C42DF5F7C42EF5F8C42FF597
:1007E800F5C430F5A8AEFBEF03F0FDEF03F008EF1A
:1007F80004F0B3AE02EF04F004EF04F008EF04F0E5
:1008080078EC0FF0FFEF04F0ABA60DEF04F00FEF5C
:1008180004F01AEF04F0B6A614EF04F016EF04F093
:100828001AEF04F050EC0DF0FFEF04F0ABAE1FEF41
:1008380004F021EF04F02CEF04F0B6AE26EF04F03C
:1008480028EF04F02CEF04F036EC0FF0FFEF04F083
:10085800AFA631EF04F033EF04F03EEF04F0BAA690
:1008680038EF04F03AEF04F03EEF04F022EC0BF01E
:10087800FFEF04F0AFA043EF04F045EF04F050EFB2
:1008880004F0BAA04AEF04F04CEF04F050EF04F083
:100898007CEC10F0FFEF04F0AFA455EF04F057EF35
:1008A80004F062EF04F0BAA45CEF04F05EEF04F029
:1008B80062EF04F0BFEC0BF0FFEF04F0AFA267EFBC
:1008C80004F069EF04F074EF04F0BAA26EEF04F0DC
:1008D80070EF04F074EF04F049EC10F0FFEF04F04F
:1008E800ABA879EF04F07BEF04F086EF04F0B6A82C
:1008F80080EF04F082EF04F086EF04F0CEEC0CF009
:10090800FFEF04F0A9A48BEF04F08DEF04F098EF4B
:1009180004F0B4A492EF04F094EF04F098EF04F01C
:10092800F5EC10F0FFEF04F0AAA09DEF04F09FEFA4
:1009380004F0AAEF04F0B5A0A4EF04F0A6EF04F0C9
:10094800AAEF04F0F3EC10F0FFEF04F0ACA6AFEF61
:1009580004F0B1EF04F0C7EF04F0B7A6B6EF04F067
:10096800B8EF04F0C7EF04F002D8C5EF04F00500B3
:10097800FA6E0501AD51FD6EAE51FE6EFF6AFA507A
:100988001200FFEF04F0ACA2CCEF04F0CEEF04F0BD
:10099800E4EF04F0B7A2D3EF04F0D5EF04F0E4EFEE
:1009A80004F002D8E2EF04F00500FA6E0501B15137
:1009B800FD6EB251FE6EFF6AFA501200FFEF04F0AE
:1009C800ACA0E9EF04F0EBEF04F0FFEF04F0B7A000
:1009D800F0EF04F0F2EF04F0FFEF04F002D8FFEFBD
:1009E80004F00500FA6E0501AF51FD6EB051FE6EC0
:1009F800FF6AFA50120030C5F5F42FC5F8F42EC579
:100A0800F7F42DC5F6F42CC5FBF42BC5FAF4110048
:100A18000FC5D9F410C5DAF4DEC4F6F4DDC4F7F472
:100A2800F86A0800F550250AD8A41DEF05F01FEF55
:100A380005F0FAEF05F00FC5D9F410C5DAF4DE2A8F
:100A4800000EDD2205019A6B000E996F99C556F5C7
:100A58009B699C690FC5D9F410C5DAF4DEC416F594
:100A6800DDC417F516C5F6F417C5F7F4F86A0800DB
:100A7800F550640AD8B443EF05F045EF05F054EF9C
:100A880005F016C5F6F417C5F7F4F86A0800F5502E
:100A9800690AD8A452EF05F054EF05F0F1EF05F01C
:100AA80011C5D9F412C5DAF4DFC413F5020EDE2637
:100AB800DFC414F5000EDD2213C5D9F414C5DAF429
:100AC800DEC418F5DDC419F5010E1624136E000EE8
:100AD8001720146E0FC5D9F410C5DAF413C5DEF467
:100AE80014C5DDF4200E1C6E19BE7DEF05F080EFF5
:100AF80005F0010E81EF05F0000E156E1C06000EC4
:100B08001C24D96EDA6A060EDA2218C501F519C551
:100B180002F5046A0A0E036E77EC0AF001C507F5C0
:100B280002C508F5B9EC0EF00750300FDF6E18C596
:100B380001F519C502F5046A0A0E036EC0EC09F046
:100B480001C518F502C519F518501910D8B4AFEF3A
:100B580005F0B1EF05F0B9EF05F01C50D8A4B7EFD8
:100B680005F0B9EF05F082EF05F01C50D8B4BFEFDF
:100B780005F0C1EF05F0E6EF05F01550D8B4C7EF62
:100B880005F0C9EF05F0E6EF05F01C06000E1C2481
:100B9800D96EDA6A060EDA222D0EDF6EE6EF05F060
:100BA800000E1C24D96EDA6A060EDA22DF50136EA4
:100BB8001350046E056A0DC506F50EC507F5FBEC66
:100BC80008F01C2A200E1C18D8A4EDEF05F0EFEF52
:100BD80005F0D4EF05F00FEF06F00FC5D9F410C5F6
:100BE800DAF4DE2A000EDD220FEF06F00FC5D9F485
:100BF80010C5DAF4DEC4F6F4DDC4F7F4F86A0800C8
:100C0800F550046E056A0DC506F50EC507F5FBEC33
:100C180008F0F1EF05F01200096E0950D8B417EF8B
:100C280006F019EF06F03BEF06F004BE20EF06F0E1
:100C38001EEF06F03BEF06F001C505F502C506F507
:100C480003C507F504C508F5051E061E071E081E80
:100C5800052A000E06220722082205C50BF506C53F
:100C68000CF507C50DF508C50EF543EF06F001C5EF
:100C78000BF502C50CF503C50DF504C50EF50150BD
:100C8800021003100410D8A44CEF06F04EEF06F043
:100C980058EF06F0000E016E000E026E000E036E95
:100CA800000E046EE9EF06F0960E0A6E62EF06F08B
:100CB8000A2AD8900E320D320C320B32000E0B1469
:100CC800056E000E0C14066E000E0D14076EFE0E57
:100CD8000E14086E0550061007100810D8A477EFF8
:100CE80006F079EF06F05CEF06F087EF06F00A2AC7
:100CF800010E0B26000E0C220D220E22D8900E3269
:100D08000D320C320B32000E0B14056E000E0C1453
:100D1800066E000E0D14076EFF0E0E14086E0550B9
:100D2800061007100810D8A49CEF06F09EEF06F0F6
:100D38007BEF06F0A6EF06F00A06D8900B360C36C5
:100D48000D360E360DBEABEF06F0ADEF06F0B5EF83
:100D580006F0020E0A60B3EF06F0B5EF06F0A0EF5A
:100D680006F00AB0BAEF06F0BCEF06F0BDEF06F0E9
:100D78000D9ED8900A320AC505F5066A076A086A00
:100D880005C508F5076A066A056A05500B1206507C
:100D98000C1207500D1208500E120950D8B4D7EF94
:100DA80006F0D9EF06F0E1EF06F004BEE0EF06F03A
:100DB800DEEF06F0E1EF06F00E8E0BC501F50CC56F
:100DC80002F50DC503F50EC504F512005950020DC4
:100DD800600EF324D96E050EF420DA6EDE6ADD6A41
:100DE8000201B2A7FAEF06F0FCEF06F01AEF07F0DF
:100DF8005950020D600EF324D96E050EF420DA6EF8
:100E0800DF823A503B10D8B40CEF07F00EEF07F032
:100E18001AEF07F002D81AEF07F00500FA6E3A50F9
:100E2800FD6E3B50FE6EFF6AFA5012000201B2A33B
:100E380020EF07F022EF07F040EF07F05950020DBE
:100E4800600EF324D96E050EF420DA6EDF84385074
:100E58003910D8B432EF07F034EF07F040EF07F05D
:100E680002D840EF07F00500FA6E3850FD6E395091
:100E7800FE6EFF6AFA5012000201B2AD46EF07F0AB
:100E880048EF07F067EF07F05950020D600EF324A2
:100E9800D96E050EF420DA6EDF800501A951AA117A
:100EA800D8B459EF07F05BEF07F067EF07F002D807
:100EB80067EF07F00500FA6EA951FD6EAA51FE6EA4
:100EC800FF6AFA501200A1C201F55928070B026EF9
:100ED80058500218D8A473EF07F075EF07F077EFB2
:100EE80007F082EF07F0300E5924D96EDA6A060E41
:100EF800DA2201C5DFF402C559F5572A12000501A7
:100F0800BF35C035C66FC651D8A48DEF07F08FEF37
:100F180007F099EF07F0000EBD6F000EBE6F000ED0
:100F2800BF6F000EC06F06EF08F0BDC5C1F5BEC5A6
:100F3800C2F5BFC5C3F5C0C5C4F5200EA9EF07F0BB
:100F4800D890C433C333C233C133E82EA4EF07F0BB
:100F5800C151C56FBF8FFF0EBD17FF0EBE17FF0E25
:100F6800BF17000EC017960EC65FC6BFC0EF07F0CA
:100F7800BEEF07F0D6EF07F0C651800A970FD8B03A
:100F8800C8EF07F0CAEF07F0CCEF07F08FEF07F0D4
:100F9800D890C033BF33BE33BD33C63FCCEF07F064
:100FA800EEEF07F01F0EC665DCEF07F0DEEF07F087
:100FB800E6EF07F08FEF07F0D890BD37BE37BF37A1
:100FC800C037C607C651D8A4ECEF07F0EEEF07F01C
:100FD800E0EF07F0C551D8B4F4EF07F0F6EF07F0EB
:100FE800FEEF07F0C01FBF1FBE1FBD6D000EBE2362
:100FF800BF23C023BDC5BDF5BEC5BEF5BFC5BFF582
:10100800C0C5C0F51200210E63EC0FF0000E63ECB2
:101018000FF07F0E63EC0FF0220E63EC0FF0000E62
:1010280063EC0FF0070E63EC0FF0400E0501D76F6D
:10103800040EEB6F000EEA6FEF6B000EEE6F7FEFA2
:1010480008F0EE51EA5DEC6FEF51EB59ED6FED51A1
:1010580007E1110EEC5DD8B034EF08F036EF08F078
:101068003CEF08F0ECC5E8F5EDC5E9F53FEF08F011
:10107800E96B100EE86FE8C5F0F5F16B62EF08F068
:10108800380ED36F060ED46FF151D327000ED42338
:10109800EE51D325D96EEF51D421DA6EF151D56FC7
:1010A800D66B010ED527000ED623D70ED525E16EB7
:1010B800050ED621E26EDFC4E7F4F12BF051F15DA5
:1010C800D8A069EF08F06BEF08F044EF08F0C66BA2
:1010D8003C0EC56FD70EC76F050EC86F010EF02501
:1010E800C96FCA6B000ECA2320EC0AF00501F05143
:1010F800EE27000EEF23EA51EE5DEB51EF59D8A031
:1011080088EF08F08AEF08F025EF08F01200D3EC1A
:101118000EF060EC09F0440E0501BD6F1F0EBE6FA6
:10112800AAEC10F0660E0501BD6F200EBE6FAFEC85
:1011380010F0E40E0501BD6F200EBE6FB4EC10F088
:101148004E0E0501BD6F1A0EBE6FC8EC10F0D68E9C
:101158000C0E81EC0EF0BDC5A1F5BEC5A2F5B9C552
:10116800BDF5BAC5BEF5BBC5BFF5BCC5C0F5000E1B
:101178000501C16FCC0EC26F4C0EC36F440EC46F15
:101188000FEC00F0BDC58DF5BEC58EF5BFC58FF55A
:10119800C0C590F58DC5BDF58EC5BEF58FC5BFF52B
:1011A80090C5C0F583EC07F0BDC5C7F5BEC5C8F549
:1011B8009EEC10F0F1EC10F0CD0E0501856F4C0E91
:1011C800866F280E876F430E886F85C5BDF586C567
:1011D800BEF587C5BFF588C5C0F583EC07F00501E6
:1011E800BD51E1EC10F0ACEF08F00DEF00F0065047
:1011F8000710D8B402EF09F004EF09F00DEF09F079
:1012080006500710D8A40BEF09F00DEF09F012EF04
:1012180009F0045024EC10F05FEF09F020EE09F01B
:101228000650D9260750DA22DE50DE10D8B41FEF58
:1012380009F021EF09F03CEF09F020EE09F0065023
:10124800D9260750DA2210EE02F00650E1260750A0
:10125800E222DE50E65CE650800A0C6EDE50800A20
:101268000C58D8B03AEF09F03CEF09F05FEF09F0FD
:1012780020EE02F00650D9260750DA22DEC408F51F
:10128800DDC409F506C5D9F407C5DAF4DEC40AF5E4
:10129800DDC40BF508500A24D96E09500B20DA6E0C
:1012A80004C5DFF420EE02F00650D9260750DA22F2
:1012B800DE2A000EDD221200090E0501F36F1E0E54
:1012C800F26FE40EE82EFED7F22FFCD7F32FFAD7F1
:1012D8000000AE0E63EC0FF0D50E63EC0FF0800E3D
:1012E80063EC0FF0A80E63EC0FF03F0E63EC0FF009
:1012F800D30E63EC0FF0000E63EC0FF0400E63ECBE
:101308000FF08D0E63EC0FF0140E63EC0FF0200E4F
:1013180063EC0FF0000E63EC0FF0A10E63EC0FF01E
:10132800C80E63EC0FF0DA0E63EC0FF0120E63ECEC
:101338000FF0810E63EC0FF0CF0E63EC0FF0D90EB7
:1013480063EC0FF0F10E63EC0FF0DB0E63EC0FF0C3
:10135800400E63EC0FF0A40E63EC0FF0A60E63ECE6
:101368000FF02E0E63EC0FF0AF0E63EC0FF015ECE0
:1013780010F007EC08F01200066A04BEC8EF09F086
:10138800C6EF09F0CEEF09F0036C041ED8B0042AAA
:10139800010E066E02BED5EF09F0D3EF09F0DBEFC0
:1013A80009F0016C021ED8B0022A010E061A086A5A
:1013B800000E076E03500410D8B4E5EF09F0E7EF0C
:1013C80009F00FEF0AF0010E056EEFEF09F0D89063
:1013D80003360436052A04AEF4EF09F0F6EF09F0F7
:1013E800EBEF09F0D890073608360350015C04503B
:1013F8000258D8A002EF0AF004EF0AF009EF0AF049
:101408000350015E0450025A0780D8900432033218
:10141800052EF6EF09F00650D8B415EF0AF017EFCD
:101428000AF01BEF0AF0076C081ED8B0082A07C597
:1014380001F508C502F51200E80E0501CC6F030E90
:10144800CD6F000ECE6F000ECF6FC5C5BEF5C6C5F9
:10145800BFF5C7C5C0F5C8C5C1F5C9C5C2F5CAC578
:10146800C3F5FBEC0CF00009D8A43DEF0AF03FEF00
:101478000AF050EF0AF076EF0AF0150E0501CB6F6F
:10148800C60EE82EFED7CB2FFCD700000501CC07EF
:10149800000ECD5BCE5BCF5B1EEC0FF00009D8B41D
:1014A80058EF0AF05AEF0AF066EF0AF00501CC513E
:1014B800CD11CE11CF11D8A464EF0AF066EF0AF06F
:1014C80041EF0AF00501CC51CD11CE11CF11D8A4AE
:1014D80070EF0AF072EF0AF074EF0AF076EF0AF094
:1014E800A4EC10F01200066A02BE7FEF0AF07DEF4E
:1014F8000AF085EF0AF0016C021ED8B0022A010E2C
:10150800066E04BE8CEF0AF08AEF0AF090EF0AF03C
:10151800036C041ED8B0042A03500410D8B497EF03
:101528000AF099EF0AF0BDEF0AF0010E056EA1EF7F
:101538000AF0D89003360436052A04AEA6EF0AF05E
:10154800A8EF0AF09DEF0AF00350015C045002581E
:10155800D8A0B1EF0AF0B3EF0AF0B7EF0AF00350E2
:10156800015E0450025AD89004320332052EA8EFC7
:101578000AF00650D8B4C3EF0AF0C5EF0AF0C9EF75
:101588000AF0016C021ED8B0022A01C501F502C595
:1015980002F51200BE6AC00EBF6EC06A0401026B7B
:1015A800C00E0A6F126B1B0EC66E300EC76E6A0E27
:1015B800C86E070E006F300E086F3D0E106F100ECC
:1015C800016F096B020E116F370E036FF00E0B6F70
:1015D80013693F0E046FF00E0C6F14690201876BDC
:1015E800010E866F160E726F100E186F0A0E116FAD
:1015F8000B0E156F0F0E716F210E106F0E0E706FA0
:10160800220E0F6F0401056B100E066F076B0D6B32
:101618000E6B0F6B020E156F166B176BFC0E050128
:10162800BD6F210EBE6FC8EC10F0FE0E0501BD6F38
:10163800210EBE6FCDEC10F0A88E1200020197AB00
:1016480028EF0BF02AEF0BF033EF0BF0030E050138
:101658007C6F0201979B27EC0EF070EF0BF098A7B8
:1016680038EF0BF03AEF0BF04AEF0BF095AB3FEF8A
:101678000BF041EF0BF04AEF0BF0010E05017C6F08
:1016880002019799949D958770EF0BF098A74FEFFB
:101698000BF051EF0BF061EF0BF095AB56EF0BF041
:1016A80058EF0BF061EF0BF0020E05017C6F0201A1
:1016B8009799949D958770EF0BF097AD66EF0BF0B7
:1016C80068EF0BF06FEF0BF0030E05017C6F020162
:1016D800979D70EF0BF0979905017C511200AC9023
:1016E800D40E0501AF6F0D0EB06FAC923C0EB16F0A
:1016F8001D0EB26FAC96DC0EAD6F210EAE6F0201FF
:10170800A26BA46BA56BA66BA76BA86BA96BAA6B46
:10171800B00EAB6F800EAC6F080EAD6FA00EAE6F43
:10172800010EAF6F2E0EB06FB16B800EB26FB36B40
:10173800F40E0501BD6F210EBE6FF7EC0FF0F20E2F
:101748000501BD6F210EBE6FE8EC0FF0F00E05012C
:10175800BD6F210EBE6FD9EC0FF00501AC6B000E0A
:10176800AB6F5C6A5B6A080E5A6E596A586A576AA8
:10177800AC80AC86120002019BA5C5EF0BF0C7EF49
:101788000BF0D2EF0BF09AA5CCEF0BF0CEEF0BF0ED
:10179800D2EF0BF08DEC0FF006EF0CF09BAFD7EF0C
:1017A8000BF0D9EF0BF0F6EF0BF09AAFDEEF0BF082
:1017B800E0EF0BF0F6EF0BF005017B51D8B4E7EF43
:1017C8000BF0E9EF0BF0F1EF0BF07B6B02019A9154
:1017D8009A9F4DEC0FF006EF0CF00201949D95874F
:1017E800CEEF0BF09BA3FBEF0BF0FDEF0BF006EF3A
:1017F8000CF09AA302EF0CF004EF0CF006EF0CF0DB
:10180800949D9A931200EE0EF66E210EF76E000E5E
:10181800F86E0900F5C4F8F50900F5C4F9F5000EED
:10182800F66E220EF76E000EF86E0900F5C45FF52D
:1018380001EE38F211EE00F0EE6AE550E150FCE1FD
:10184800E250FAE101EE00F2380EEE6AE806FDE138
:1018580001EE60F15D0EEE6AE806FDE101EE31F1A0
:101868002E0EEE6AE806FDE10401080E5D6F000E1B
:101878005E6F000E5F6F00018BEF08F0606A020E6A
:10188800616E626A6368F90E646E656A666A676AA1
:10189800686A010E6A6E6B6A7D0E6C6E6D6A7D0EEB
:1018A8006E6EB79CB79E67906792AC9EAC9C000E1C
:1018B8000501BD6F000EBE6FBEEC10F0000E0501F5
:1018C800BD6F000EBE6FB9EC10F0000E0501BD6FC4
:1018D800000EBE6FC3EC10F0800E696E120003019B
:1018E800F39FD96BDA6BDB6BDC6BDF6BE06BE56B63
:1018F800E76B120EEC6FEE6BEF6BD86BF06BF16B66
:10190800F26BF46B180EF56F100EF66FF76BF86B41
:101918001F0EFA6FF96B000E0501B76F000EB86F56
:10192800000EB56F000EB66F5D6AB494A994B590B9
:10193800AA90C40E0301F36F1200040E0201946F03
:10194800800E956F080E966F010E9E6F9A6B9B6BBB
:10195800976B8C6B8D6B1F0E9D6F9F6B510E866FF7
:101968005EEC10F002019B919B95948F050EE82E7A
:10197800FED700000000000000000000000000008A
:1019880002019A919A959B85000E0501B36F000E8E
:10199800B46F120042C501F543C502F5C3EC0DF062
:1019A8003C4A3D2A3D5009E14B0E3C5CD8A0DFEF94
:1019B8000CF0E1EF0CF0F9EF0CF040504110D8B406
:1019C800E8EF0CF0EAEF0CF0F6EF0CF002D8F6EFC7
:1019D8000CF00500FA6E4050FD6E4150FE6EFF6A35
:1019E800FA5012003D6A000E3C6EB69812000501CE
:1019F800C46B1EEC0FF00009D8A405EF0DF007EF3B
:101A08000DF024EF0DF0010E0501706FBEC571F5E4
:101A1800BFC572F57B6BC0C573F5C1C574F5C2C58A
:101A280075F5C3C576F5000E776F000E786F7A6B83
:101A3800000E796F7C6BE6EC0DF0010E0501C46FAA
:101A48000501C4511200EAEC10F05E6E000E0F6E34
:101A5800000E106E7A0E116E440E126E5E50016EFC
:101A6800026A036A046A010E10EC06F001C513F558
:101A780002C514F503C515F504C516F523EC02F0E7
:101A88000FC5B9F510C5BAF511C5BBF512C5BCF53A
:101A9800000EE6EC10F01200464A472AF40E465CA7
:101AA800010E4758D8A05BEF0DF05DEF0DF075EF14
:101AB8000DF048504910D8B464EF0DF066EF0DF002
:101AC80072EF0DF002D872EF0DF00500FA6E485073
:101AD800FD6E4950FE6EFF6AFA501200476A000E0A
:101AE800466EB69612001FC523F520C524F58BEF68
:101AF8000DF01DC50DF51EC50EF5230E0F6E050E56
:101B0800106E21C511F522C512F50CEC05F023C5A0
:101B1800F6F424C5F7F4F86A0800F5500009D8A4CB
:101B280098EF0DF09AEF0DF07DEF0DF01E6A000EA4
:101B38001D6E1200026EACB2A4EF0DF0A6EF0DF010
:101B4800AAEF0DF002C5A3F2C1EF0DF05A50D8B4B8
:101B5800B0EF0DF0B2EF0DF0C1EF0DF07D0E5C248B
:101B6800D96EDA6A050EDA2202C5DFF45C28070BA3
:101B7800016E01C55CF5AC925A06AC8212000301F5
:101B880014A5C9EF0DF0CBEF0DF0E1EF0DF014B196
:101B9800D0EF0DF0D3EF0DF0010ED4EF0DF0000EE5
:101BA800036E0250136F01C512F303B002D01491F3
:101BB80002D003011481E5EF0DF00250136F01C547
:101BC80012F31200050175517611D8B4EEEF0DF03D
:101BD800F0EF0DF000EF0EF0765102018D6F75C534
:101BE8008CF205017B51D8B4FCEF0DF0FEEF0DF03F
:101BF80000EF0EF00201948D05017151712502016B
:101C08008F6F948B120003011491156B166B010EE4
:101C1800176F630E136FBF0E126F13510501BD6F5F
:101C280003011251426EBDC543F5F80E406E210EF8
:101C3800416E000E3E6E000E3F6EB698AB88B69AA7
:101C4800350E146F120002019A6B979B979D979916
:101C580090EC10F00201996B9985949F86EC10F036
:101C680002019B919B95948F050EE82EFED70000EC
:101C780000000000000000000000000002019A912E
:101C88009A959B851200D69AB490D690000E0501BD
:101C9800BD6F000EBE6FDCEC10F0B990D682000E5E
:101CA8000501BD6F000EBE6FD7EC10F0BD90D68455
:101CB800000E0501BD6F000EBE6FD2EC10F01200D1
:101CC800BDC5C3F5BEC5C4F572EF0EF0C3C5D9F4E2
:101CD800C4C5DAF4BFC5DFF4C34BC42B0501C10783
:101CE800D8A0C207C12906E1C229D8A47EEF0EF008
:101CF80080EF0EF06AEF0EF012000501C16FC1C54A
:101D0800ECF30301F39DF381F3B18DEF0EF08FEF48
:101D18000EF088EF0EF0EB510501C06FBF6B0301A9
:101D2800EA510501BF25BD6F0301000E0501C02161
:101D3800BE6F1200080E5A60A4EF0EF0A6EF0EF068
:101D4800B7EF0EF07D0E5B24D96EDA6A050EDA2243
:101D5800DF500201A36F5B28070B016E01C55BF51D
:101D68005A2AB8EF0EF0AC92120008BEBEEF0EF081
:101D7800C0EF0EF0C6EF0EF007C507F508C508F569
:101D8800D2EF0EF007C509F508C50AF5091E0A1EA7
:101D9800094A0A2A09C507F50AC508F5120068ECB8
:101DA80010F0CEEC0AF073EC0CF0A1EC0CF006ECA1
:101DB80010F007EC0EF0C8EC0FF098EC10F054ECB3
:101DC80010F042EC0CF073EC0BF047EC0EF0120044
:101DD8000501F651F711D8B4F4EF0EF0F6EF0EF056
:101DE80002EF0FF002D802EF0FF00500FA6EF6517D
:101DF800FD6EF751FE6EFF6AFA5012000401079952
:101E080012000501F451F511D8B40DEF0FF00FEFE2
:101E18000FF01BEF0FF002D81BEF0FF00500FA6E62
:101E2800F451FD6EF551FE6EFF6AFA50120004017E
:101E380017931200010E0501BD6F7051D8A427EF4A
:101E48000FF029EF0FF033EF0FF0020198AF2FEFEB
:101E58000FF031EF0FF033EF0FF00501BD6B050107
:101E6800BD51120044504510D8B43DEF0FF03FEF7C
:101E78000FF04BEF0FF002D84BEF0FF00500FA6EA2
:101E88004450FD6E4550FE6EFF6AFA501200B69E31
:101E98001200050179517A11D8B455EF0FF057EFB8
:101EA8000FF05CEF0FF07A5102018D6F79C58CF25B
:101EB800D8800501713502018F6F948B12000501DE
:101EC800D06F0501D26B000ED16FD0C5D2F5C66BAD
:101ED8003C0EC56FD10EC76F050EC86FCA6B020ED8
:101EE800C96F20EC0AF01200040107A97EEF0FF079
:101EF80080EF0FF082EF0FF0ECEC0EF0040117A367
:101F080088EF0FF08AEF0FF08CEF0FF005EC0FF071
:101F180012000501706B000E726F7169000E736F0D
:101F2800000E746F000E776F000E786F02019A6BC7
:101F3800979B979D9799996B99851200BEBAA7EFC1
:101F48000FF0AAEF0FF0010EABEF0FF0000EFF0A33
:101F5800016E013A0146BE500118DF0B0118BE6E32
:101F68001200270E296E050E2A6E000E1D6E000E39
:101F78001E6E25C51FF526C520F5290E216E050EF6
:101F8800226E77EC0DF01200010E0301206F1F6B1B
:101F9800216BF90E1D6F1C6BF60E486E210E496EF3
:101FA800B696AB86F00E1E6F12000501BD51BE112C
:101FB800D8B4E1EF0FF0E3EF0FF0E7EF0FF0BDC596
:101FC800A9F5BEC5AAF512000501BD51BE11D8B4C8
:101FD800F0EF0FF0F2EF0FF0F6EF0FF0BDC538F5A8
:101FE800BEC539F512000501BD51BE11D8B4FFEFC9
:101FF8000FF001EF10F005EF10F0BDC53AF5BEC5C2
:102008003BF51200F30E0301196F186B5E0E1B6F80
:10201800FA0E446E210E456EB69EAB8E800E1A6F78
:102028001200380E0501BD6F060EBE6FC06B000EA4
:10203800BF6F040EC26F000EC16F64EC0EF0120089
:10204800036E3EEC10F00009D8B42DEF10F02FEF1E
:1020580010F025EF10F003509EEC0DF01200FA0E70
:10206800256EFF0E266EA1C527F5A2C528F5B5EC8D
:102078000FF012005A50D8A444EF10F047EF10F0B8
:10208800010E48EF10F0000E120073C5D9F474C5A4
:10209800DAF4DF5002018B6F0501734B742B1200C9
:1020A8000001A46B020EA56FA66BA76BA96B880E27
:1020B800A36F1200AF84AF86AF80AF8202019B8509
:1020C8009B839B8F97811200600E0001AD6FAF6BF1
:1020D800B36B080EB16FB06BAC6B1200000E05014C
:1020E800B96F000EBA6F000EBB6F000EBC6F120006
:1020F80077C5D9F478C5DAF48AC2DFF40501774BDD
:10210800782B1200AF84AF86AF80AF8202019B8527
:102118009B839B8F97811200AF94AF96AF90AF923D
:1021280002019B6B976B1200A00E00017F6FA90E36
:102138007D6F1200C7C56BF40501C8516C6E1200A3
:102148007CC5BDF505017C6BBD511200BDC548F5C8
:10215800BEC549F51200BDC540F5BEC541F5120022
:10216800BDC544F5BEC545F51200BDC552F5BEC591
:1021780053F51200BDC554F5BEC555F51200BDC5D1
:1021880050F5BEC551F51200BDC5F6F5BEC5F7F54B
:102198001200BDC5F4F5BEC5F5F51200BDC54AF57A
:1021A800BEC54BF51200BDC54CF5BEC54DF51200B8
:1021B800BDC54EF5BEC54FF512000501C76FC7C5B1
:1021C8007DF01200016E01C518F3120018C301F565
:1021D800015012000201B19F120069841200B590EB
:1021E8001200B494120040001200120012001200F3
:0921F80012001200120012000195
:10F7A200000810205F0000000000000000000000C0
:10F7B2000000000000000000F8000000000000004F
:10F7C200333000000000100C06100C060000000090
:10F7D200000000000040C07840C0784000043F04B0
:10F7E200043F040400007088FC0830000000182068
:10F7F200FF211E0000F008F000E018000000211CAC
:10F80200031E211E0000F00888700000001E212344
:10F81200241927211010160E00000000000000001D
:10F822000000000000000000E018040200000000D8
:10F83200071820400000020418E0000000004020E9
:10F842001807000000404080F080404000020201A2
:10F852000F01020200000000F0000000000101019F
:10F862001F01010100000000000000000080B070D4
:10F872000000000000000000000000000000010184
:10F882000101010101000000000000000000303011
:10F8920000000000000000000080601804006018F2
:10F8A200060100000000E010080810E000000F1040
:10F8B2002020100F00001010F8000000000020208F
:10F8C2003F202000000070080808887000003028DF
:10F8D2002422213000003008888848300000182097
:10F8E2002020110E000000C02010F80000000704C4
:10F8F20024243F240000F808888808080000192101
:10F902002020110E0000E0108888180000000F115E
:10F912002020110E0000380808C838080000000036
:10F922003F000000000070880808887000001C2258
:10F932002121221C0000E010080810E00000003124
:10F942002222110F00000000C0C0000000000000D1
:10F952003030000000000000800000000000008045
:10F96200600000000000008040201008000001023A
:10F97200040810200040404040404040000404047D
:10F98200040404040000081020408000000020103D
:10F992000804020100007048080808F00000000096
:10F9A2003036010000C030C828E810E000071827F0
:10F9B2002423140B000000C038E0000000203C2388
:10F9C200020227382008F8888888700000203F202B
:10F9D2002020110E00C0300808080838000718203F
:10F9E200202010080008F808080810E000203F2036
:10F9F2002020100F0008F88888E8081000203F2017
:10FA0200202320180008F88888E8081000203F20EA
:10FA12000003000000C03008080838000007182062
:10FA220020221E020008F808000008F808203F21E2
:10FA32000101213F20000808F808080000002020EA
:10FA42003F2020000000000808F8080800C080805D
:10FA5200807F00000008F888C028180800203F2096
:10FA6200012638200008F8080000000000203F208E
:10FA7200202020300008F8F800F8F80800203F00A5
:10FA82003F003F200008F830C00008F808203F205F
:10FA92000007183F00E01008080810E0000F1020CF
:10FAA2002020100F0008F808080808F000203F2165
:10FAB2000101010000E01008080810E0000F1824FE
:10FAC2002438504F0008F8888888887000203F202A
:10FAD20000030C3020007088080808380000382025
:10FAE2002121221C00180808F8080818000000202C
:10FAF2003F2000000008F808000008F808001F2056
:10FB02002020201F000878880000C838080000075D
:10FB1200380E010000F80800F80008F800033C075E
:10FB220000073C0300081868808068180820302C01
:10FB320003032C30200838C800C838080000002011
:10FB42003F2000000010080808C8380800203826A6
:10FB52002120201800000000FE0202020000000026
:10FB62007F40404000000C30C00000000000000058
:10FB7200010638C00000020202FE00000000404000
:10FB8200407F0000000000040202020400000000A6
:10FB920000000000000000000000000000808080E3
:10FBA20080808080800002020400000000000000CB
:10FBB2000000000000000080808080000000192406
:10FBC2002222223F2008F8008080000000003F111E
:10FBD2002020110E000000008080800000000E1125
:10FBE2002020201100000000808088F800000E1103
:10FBF2002020103F200000808080800000001F2213
:10FC02002222221300008080F08888881800202099
:10FC12003F202000000000808080808000006B94E4
:10FC2200949493600008F8008080800000203F21B7
:10FC32000000203F20008098980000000000202053
:10FC42003F20200000000000809898000000C08043
:10FC520080807F000008F8000080808000203F2420
:10FC6200022D302000000808F800000000002020CB
:10FC72003F202000008080808080808000203F2004
:10FC8200003F20003F8080008080800000203F21D4
:10FC92000000203F200000808080800000001F20A4
:10FCA2002020201F00808000808000000080FFA1B3
:10FCB2002020110E000000008080808000000E11C4
:10FCC2002020A0FF80808080008080800020203F54
:10FCD2002120000100000080808080800000332409
:10FCE2002424241900008080E080800000000000AD
:10FCF2001F202000008080000000808000001F2064
:10FD02002020103F20808080000080808000010E33
:10FD1200300806010080800080008080800F300C57
:10FD2200030C300F000080800080808000002031B2
:10FD32002E0E312000808080000080808080818EA5
:10FD420070180601000080808080808000002130D1
:10FD52002C2221300000000000807C020200000002
:10FD620000003F404000000000FF000000000000D3
:10FD720000FF0000000002027C8000000000404002
:10FD82003F0000000000060101020204040000001E
:10FD920000000000000608205F00000000000000D4
:10FDA20000002F000000000700070000147F147FEE
:10FDB2001400242A7F2A12002313086462003649A1
:10FDC20055225000000503000000001C22410000E3
:10FDD2000041221C000014083E08140008083E08D6
:10FDE20008000000A0600000080808080800006081
:10FDF200600000002010080402003E5149453E0008
:10FE020000427F4000004261514946002141454B7A
:10FE120031001814127F10002745454539003C4A2D
:10FE22004949300001710905030036494949360044
:10FE3200064949291E0000363600000000563600E9
:10FE4200000008142241000014141414140000418C
:10FE520022140800020151090600324959513E009C
:10FE62007C1211127C007F49494936003E414141D2
:10FE720022007F4141221C007F49494941007F09FC
:10FE8200090901003E4149497A007F0808087F00BC
:10FE920000417F4100002040413F01007F081422C1
:10FEA20041007F40404040007F020C027F007F04FF
:10FEB20008107F003E4141413E007F0909090600CA
:10FEC2003E4151215E007F091929460046494949B0
:10FED200310001017F0101003F4040403F001F20EF
:10FEE20040201F003F4038403F0063140814630065
:10FEF200070870080700615149454300007F4141EE
:10FF02000000552A552A55000041417F0000040295
:10FF12000102040040404040400000010204000091
:10FF22002054545478007F484444380038444444B0
:10FF32002000384444487F00385454541800087E46
:10FF42000901020018A4A4A47C007F08040478001C
:10FF520000447D4000004080847D00007F102844E2
:10FF6200000000417F4000007C04180478007C08F7
:10FF720004047800384444443800FC242424180043
:10FF820018242418FC007C08040408004854545423
:10FF92002000043F444020003C4040207C001C20C4
:10FFA20040201C003C4030403C00442810284400C3
:10FFB2001CA0A0A07C004464544C440000087700BC
:10FFC200000000007F000000007708000000100819
:10FFD2001008001414141414140042190000F61925
:10FFE20000000000000048213C1E00000000102715
:0DFFF200E80364000A00010025640A000015
:020000040030CA
:090000008CFFF7FF9FFFFFFFFFDB
:00000001FF
