:040000000DEF00F010
:0400080046EF06F0C9
:10001800FF00B7EF10F00501BE51800BC76FBE514E
:10002800BE25C96FBDAF1BEF00F01DEF00F01EEF3E
:1000380000F0C981C951D8B424EF00F026EF00F0D0
:100048003AEF00F0C929D8A42CEF00F02EEF00F009
:1000580036EF00F0000EBB6F000EBC6F000EBD6FD8
:10006800000EBE6FBD8FBE6B42EF00F0000EBB6F7F
:10007800000EBC6F000EBD6F000EBE6FC251800B2C
:10008800C86FC751C819D8B44CEF00F04EEF00F054
:100098004FEF00F0C78DC251C225C86FC1AF57EFEF
:1000A80000F059EF00F05AEF00F0C881C851D8B4F9
:1000B80060EF00F062EF00F076EF00F0C829D8A4F6
:1000C80068EF00F06AEF00F072EF00F0000EBF6F0B
:1000D800000EC06F000EC16F000EC26FC18FC26BE1
:1000E8007EEF00F0000EBF6F000EC06F000EC16FF4
:1000F800000EC26FC951C85DD8B085EF00F087EF18
:1001080000F0AEEF00F0C7AD8CEF00F08EEF00F01E
:1001180090EF00F0800EC71BC9C5CAF5C8C5C9F560
:10012800CAC5C8F5BBC5CAF5BFC5BBF5CAC5BFF5C5
:10013800BCC5CAF5C0C5BCF5CAC5C0F5BDC5CAF5BC
:10014800C1C5BDF5CAC5C1F5BEC5CAF5C2C5BEF5AE
:10015800CAC5C2F5CA6BC951C8C5C3F5C46BC35F6C
:10016800000EC45BC4BFC2EF00F0C45109E11A0E0F
:10017800C35DD8A0C2EF00F0C4EF00F0FBEF00F0C1
:10018800BB51BC11BD11BE11D8A4CDEF00F0D0EF0A
:1001980000F0010ED1EF00F0000ECA6F000EBB6F29
:1001A800000EBC6F000EBD6F000EBE6FC8C5C9F54E
:1001B80004EF01F0CAA1E3EF00F0E5EF00F0EBEF88
:1001C80000F0D890CA310109CA6FEDEF00F0D8905D
:1001D800CA33BBA1F2EF00F0F4EF00F0F5EF00F046
:1001E800CA8FBE35BE33BD33BC33BB33C92BC851F0
:1001F800C95DD8A002EF01F004EF01F0DEEF00F0D6
:10020800C7BD09EF01F00BEF01F04BEF01F0C95149
:10021800D8A411EF01F013EF01F01DEF01F0000E6B
:10022800BB6F000EBC6F000EBD6F000EBE6F6AEF95
:1002380002F0BF51BB27C051BC23C151BD23C251DD
:10024800BE23BEA12AEF01F02CEF01F0D8EF01F098
:10025800CAA131EF01F033EF01F039EF01F0D89086
:10026800CA310109CA6F3BEF01F0D890CA33BBA16C
:1002780040EF01F042EF01F043EF01F0CA8FBE35C5
:10028800BE33BD33BC33BB33C92BD8EF01F0BF51EC
:10029800BB5DC051BC59C151BD59BE51800AC36F25
:1002A800C251800AC359D8B05CEF01F05EEF01F08B
:1002B80089EF01F0BB51BF5DC36FBC51C059C46F1A
:1002C800BD51C159C56FBE51C259C66FFF0EC32576
:1002D800BB6FFF0EC421BC6FFF0EC521BD6FFF0EA3
:1002E800C621BE6F800EC71BCA6DCA51D8A47FEF46
:1002F80001F081EF01F091EF01F0010EBB27000E34
:10030800BC23BD23BE2391EF01F0BF51BB5FC05199
:10031800BC5BC151BD5BC251BE5BBB51BC11BD11C1
:10032800BE11D8A49AEF01F09CEF01F0D1EF01F0D3
:10033800CA51D8A4A2EF01F0A4EF01F0D1EF01F067
:10034800000EBB6F000EBC6F000EBD6F000EBE6FBF
:100358006AEF02F0D890BB37BC37BD37BE37CAAF9B
:10036800B8EF01F0BAEF01F0BBEF01F0BB81CAA111
:10037800C0EF01F0C2EF01F0C6EF01F0D880CA3734
:10038800C8EF01F0D890CA37C951D8B4CEEF01F000
:10039800D0EF01F0D1EF01F0C907BDAFD6EF01F002
:1003A800D8EF01F0AEEF01F0C86BCAAFDEEF01F095
:1003B800E0EF01F0F8EF01F0CAC5C3F57F0EC317EF
:1003C800D8B4E9EF01F0EBEF01F0EFEF01F0010E27
:1003D800C86FF8EF01F0BBA1F4EF01F0F6EF01F000
:1003E800F8EF01F0EBEF01F0C851D8B4FEEF01F0DF
:1003F80000EF02F02BEF02F0010EBB27000EBC232A
:10040800BD23BE23BEA10BEF02F00DEF02F02BEFD0
:1004180002F0BBC5C3F5BCC5C4F5BDC5C5F5BEC5B1
:10042800C6F5C635C633C533C433C333C3C5BBF5F8
:10043800C4C5BCF5C5C5BDF5C6C5BEF5C929D8B482
:1004480028EF02F02AEF02F02BEF02F0C92BC9299E
:10045800D8B431EF02F033EF02F03BEF02F0C951AC
:10046800D8A439EF02F03BEF02F04CEF02F0000E97
:10047800BB6F000EBC6F000EBD6F000EBE6FC95182
:10048800D8A449EF02F04BEF02F04CEF02F0C76B33
:10049800C9A151EF02F053EF02F056EF02F0BD8F01
:1004A80057EF02F0BD9FD890C931BE6FC7AF5FEF5D
:1004B80002F061EF02F062EF02F0BE8FBBC5BBF540
:1004C800BCC5BCF5BDC5BDF5BEC5BEF51200050170
:1004D800CC51800BD56FCC51CC25DB6FCBAF77EFF0
:1004E80002F079EF02F07AEF02F0DB81DB51D8B449
:1004F80080EF02F082EF02F095EF02F0DB29D8A43A
:1005080088EF02F08AEF02F092EF02F0000EC96F56
:10051800000ECA6F000ECB6F000ECC6FCB8F9DEF15
:1005280002F0000EC96F000ECA6F000ECB6F000EEE
:10053800CC6FD051800BD51BD051D025DA6FCFAFFF
:10054800A8EF02F0AAEF02F0ABEF02F0DA81DA517D
:10055800D8B4B1EF02F0B3EF02F0C6EF02F0DA2937
:10056800D8A4B9EF02F0BBEF02F0C3EF02F0000E1F
:10057800CD6F000ECE6F000ECF6F000ED06FCF8FF5
:10058800CEEF02F0000ECD6F000ECE6F000ECF6FD3
:10059800000ED06FDA51D8B4D4EF02F0D6EF02F0E3
:1005A800DEEF02F0DB51D8A4DCEF02F0DEEF02F060
:1005B800E8EF02F0000EC96F000ECA6F000ECB6F95
:1005C800000ECC6F7EEF04F0CF51C903F3C4E0F501
:1005D800F4C4E1F5E051D66FD76BD86BD96BE15114
:1005E800DC6FDD6BDE6BDF6BCE51CA03F3C4E0F565
:1005F800F4C4E1F5E051D627000ED723D823D92338
:10060800E151DC27000EDD23DE23DF23CD51CB03B0
:10061800F3C4E0F5F4C4E1F5E051D627000ED72382
:10062800D823D923E151DC27000EDD23DE23DF2385
:10063800D8C5D9F5D7C5D8F5D6C5D7F5D66BCD5118
:10064800CA03F3C4E0F5F4C4E1F5E051D627E1515B
:10065800D723000ED823000ED923CE51C903F3C4E3
:10066800E0F5F4C4E1F5E051D627E151D723000EB7
:10067800D823000ED923D8C5D9F5D7C5D8F5D6C5FE
:10068800D7F5D66BCD51C903F3C4E0F5F4C4E1F551
:10069800E051D627E151D723000ED823000ED923E5
:1006A800CF51CA03F3C4E0F5F4C4E1F5E051DC2707
:1006B800E151DD23000EDE23000EDF23CE51CB03F4
:1006C800F3C4E0F5F4C4E1F5E051DC27E151DD23A2
:1006D800000EDE23000EDF23CF51CB03F3C4E0F579
:1006E800F4C4E1F5E051D16FE151D26FD36BD46B13
:1006F800D3C5D4F5D2C5D3F5D1C5D2F5D16BD15177
:10070800DC27D251DD23D351DE23D451DF23D6C5D4
:10071800D1F5D7C5D2F5D8C5D3F5D9C5D4F5190EB5
:100728009BEF03F0D890D433D333D233D133E82EB0
:1007380096EF03F0D151DC27D251DD23D351DE23CC
:10074800D451DF23D8C5D9F5D7C5D8F5D6C5D7F53F
:10075800D66BDA51DBC5D1F5D26BD127000ED22387
:10076800820ED125E06FFF0ED221E16FD1EF03F0A9
:10077800D890DC37DD37DE37DF37D9AFC6EF03F087
:10078800C8EF03F0C9EF03F0DC81D890D637D7372C
:10079800D837D937E007D8A0E107DEAFD6EF03F0A6
:1007A800D8EF03F0BCEF03F0DA6BD9AFDEEF03F05C
:1007B800E0EF03F004EF04F0FF0ED615D16FFF0E43
:1007C800D715D26FFF0ED815D36F7F0ED915D46FFA
:1007D800D151D211D311D411D8B4F5EF03F0F7EFFA
:1007E80003F0FBEF03F0010EDA6F04EF04F0DCA175
:1007F80000EF04F002EF04F004EF04F0F7EF03F069
:10080800DA51D8B40AEF04F00CEF04F030EF04F03A
:10081800010EDC27000EDD23DE23DF23DFA117EF27
:1008280004F019EF04F030EF04F0DCC5D1F5DDC5B4
:10083800D2F5DEC5D3F5DFC5D4F5D435D433D333FB
:10084800D233D133D1C5DCF5D2C5DDF5D3C5DEF55C
:10085800D4C5DFF5E04BE12BE1BF3BEF04F0E151FC
:1008680008E1E029D8A03BEF04F03DEF04F047EFA2
:1008780004F0000EDC6F000EDD6F800EDE6F7F0E61
:10088800DF6F74EF04F0E1BF54EF04F0E15106E1CB
:10089800E005D8B052EF04F054EF04F05FEF04F035
:1008A800000EDC6F000EDD6F000EDE6F000EDF6FD6
:1008B800D56B74EF04F0E0C5DBF5FF0EDC17FF0E17
:1008C800DD177F0EDE17000EDF17DBA16EEF04F0D9
:1008D80070EF04F071EF04F0DE8FD890DB31DF6F3A
:1008E800D551DF13DCC5C9F5DDC5CAF5DEC5CBF5C5
:1008F800DFC5CCF512001250800B1F6E1250122467
:10090800266E11AE8AEF04F08CEF04F08DEF04F040
:1009180026802650D8B493EF04F095EF04F0A9EFA1
:1009280004F02628D8A49BEF04F09DEF04F0A5EF6F
:1009380004F0000E0F6E000E106E000E116E000E09
:10094800126E118E126AB1EF04F0000E0F6E000ED7
:10095800106E000E116E000E126E1650800B1F1ACC
:1009680016501624276E15AEBCEF04F0BEEF04F047
:10097800BFEF04F027802750D8B4C5EF04F0C7EFC5
:1009880004F0DBEF04F02728D8A4CDEF04F0CFEF74
:1009980004F0D7EF04F0000E136E000E146E000E74
:1009A800156E000E166E158E166AE3EF04F0000E33
:1009B800136E000E146E000E156E000E166E135098
:1009C800141015101610D8A4ECEF04F0EEEF04F094
:1009D80006EF05F0000E0F6E000E106E000E116E81
:1009E800000E126E800E11127F0E12121F5012127C
:1009F8000FC50FF510C510F511C511F512C512F583
:100A080045EF06F02650D8A40CEF05F00EEF05F0E0
:100A180018EF05F0000E0F6E000E106E000E116E2E
:100A2800000E126E45EF06F0275026C517F5186A16
:100A3800175E000E185A7F0E1724206E000E18201D
:100A4800216E0FC51BF510C51CF511C51DF512C586
:100A58001EF5000E0F6E000E106E000E116E000EC9
:100A6800126E000E226E000E236E000E246E000E13
:100A7800256E276A78EF05F02750D8B446EF05F0C1
:100A880048EF05F05FEF05F0D8901B361C361D3691
:100A98001E36D8900F3610361136123625AE57EF5F
:100AA80005F059EF05F05AEF05F00F80D89022367F
:100AB80023362436253613501B5C14501C58155009
:100AC8001D5816501E58D8A06CEF05F06EEF05F0B3
:100AD80077EF05F0258C13501B5E14501C5A1550E7
:100AE8001D5A16501E5A272A190E27647EEF05F044
:100AF80080EF05F040EF05F01B501C101D101E1074
:100B0800D8B489EF05F08BEF05F0A3EF05F022804C
:100B1800A3EF05F0D8900F3610361136123625AEF1
:100B280098EF05F09AEF05F09BEF05F00F80D8904D
:100B380022362336243625362006D8A0210611AEC3
:100B4800A8EF05F0AAEF05F08EEF05F0276A25AEAD
:100B5800B0EF05F0B2EF05F0D6EF05F0FF0E221466
:100B6800176EFF0E2314186EFF0E2414196E7F0ED5
:100B780025141A6E1750181019101A10D8B4C7EF88
:100B880005F0C9EF05F0CDEF05F0010E276ED6EFA1
:100B980005F00FA0D2EF05F0D4EF05F0D6EF05F081
:100BA800C9EF05F02750D8B4DCEF05F0DEEF05F00B
:100BB80002EF06F0010E0F26000E1022112212225B
:100BC80012A0E9EF05F0EBEF05F002EF06F00FC514
:100BD80017F510C518F511C519F512C51AF51A3407
:100BE8001A3219321832173217C50FF518C510F511
:100BF80019C511F51AC512F5204A212A21BE0DEF93
:100C080006F0215008E12028D8A00DEF06F00FEFDC
:100C180006F01AEF06F0000E216E2068000E0F6E27
:100C2800000E106E000E116E000E126E21BE27EF20
:100C380006F0215006E12004D8B025EF06F027EF92
:100C480006F033EF06F0216A000E206E000E0F6EDC
:100C5800000E106E000E116E000E126E1F6A20C577
:100C680026F526A03AEF06F03CEF06F03FEF06F037
:100C7800118E40EF06F0119ED8902630126EFAEFD2
:100C880004F01200FAC42BF5FBC42CF5F6C42DF5BC
:100C9800F7C42EF5F8C42FF5F5C430F5A8AE57EF14
:100CA80006F059EF06F064EF06F0B3AE5EEF06F01B
:100CB80060EF06F064EF06F00FEC15F05BEF07F05D
:100CC800ABA669EF06F06BEF06F076EF06F0B6A676
:100CD80070EF06F072EF06F076EF06F0F7EC11F021
:100CE8005BEF07F0ABAE7BEF06F07DEF06F088EF29
:100CF80006F0B6AE82EF06F084EF06F088EF06F055
:100D080005EC14F05BEF07F0AFA68DEF06F08FEF60
:100D180006F09AEF06F0BAA694EF06F096EF06F002
:100D28009AEF06F089EC0FF05BEF07F0AFA09FEFAA
:100D380006F0A1EF06F0ACEF06F0BAA0A6EF06F0B9
:100D4800A8EF06F0ACEF06F043EC15F05BEF07F008
:100D5800AFA4B1EF06F0B3EF06F0BEEF06F0BAA409
:100D6800B8EF06F0BAEF06F0BEEF06F06FEC10F041
:100D78005BEF07F0AFA2C3EF06F0C5EF06F0D0EFC8
:100D880006F0BAA2CAEF06F0CCEF06F0D0EF06F0F4
:100D98001AEC15F05BEF07F0ABA8D5EF06F0D7EF2C
:100DA80006F0E2EF06F0B6A8DCEF06F0DEEF06F09C
:100DB800E2EF06F075EC11F05BEF07F0A9A4E7EF9E
:100DC80006F0E9EF06F0F4EF06F0B4A4EEEF06F053
:100DD800F0EF06F0F4EF06F0B7EC15F05BEF07F074
:100DE800AAA0F9EF06F0FBEF06F006EF07F0B5A0B2
:100DF80000EF07F002EF07F006EF07F0B5EC15F08B
:100E08005BEF07F0ACA60BEF07F00DEF07F023EF51
:100E180007F0B7A612EF07F014EF07F023EF07F07B
:100E280002D821EF07F00500FA6E0501A951FD6E01
:100E3800AA51FE6EFF6AFA5012005BEF07F0ACA2EF
:100E480028EF07F02AEF07F040EF07F0B7A22FEFDF
:100E580007F031EF07F040EF07F002D83EEF07F058
:100E68000500FA6E0501AD51FD6EAE51FE6EFF6ACA
:100E7800FA5012005BEF07F0ACA045EF07F047EF20
:100E880007F05BEF07F0B7A04CEF07F04EEF07F065
:100E98005BEF07F002D85BEF07F00500FA6E05017B
:100EA800AB51FD6EAC51FE6EFF6AFA50120030C5B0
:100EB800F5F42FC5F8F42EC5F7F42DC5F6F42CC5B6
:100EC800FBF42BC5FAF411000FC5D9F410C5DAF4F8
:100ED800DEC4F6F4DDC4F7F4F86A0800F550250A14
:100EE800D8A479EF07F07BEF07F056EF08F00FC5AD
:100EF800D9F410C5DAF4DE2A000EDD2205019A6B5A
:100F0800000E996F99C556F59B699C690FC5D9F470
:100F180010C5DAF4DEC416F5DDC417F516C5F6F407
:100F280017C5F7F4F86A0800F550640AD8B49FEFBB
:100F380007F0A1EF07F0B0EF07F016C5F6F417C5F4
:100F4800F7F4F86A0800F550690AD8A4AEEF07F07C
:100F5800B0EF07F04DEF08F011C5D9F412C5DAF477
:100F6800DFC413F5020EDE26DFC414F5000EDD2201
:100F780013C5D9F414C5DAF4DEC418F5DDC419F5BF
:100F8800010E1624136E000E1720146E0FC5D9F427
:100F980010C5DAF413C5DEF414C5DDF4200E1C6E9A
:100FA80019BED9EF07F0DCEF07F0010EDDEF07F00F
:100FB800000E156E1C06000E1C24D96EDA6A060E89
:100FC800DA2218C501F519C502F5046A0A0E036E7E
:100FD80032EC0FF001C507F502C508F5A1EC13F0D6
:100FE8000750300FDF6E18C501F519C502F5046A00
:100FF8000A0E036E7BEC0EF001C518F502C519F553
:1010080018501910D8B40BEF08F00DEF08F015EFD1
:1010180008F01C50D8A413EF08F015EF08F0DEEF25
:1010280007F01C50D8B41BEF08F01DEF08F042EF92
:1010380008F01550D8B423EF08F025EF08F042EF78
:1010480008F01C06000E1C24D96EDA6A060EDA2295
:101058002D0EDF6E42EF08F0000E1C24D96EDA6AFE
:10106800060EDA22DF50136E1350046E056A0DC5A2
:1010780006F50EC507F5B6EC0DF01C2A200E1C1857
:10108800D8A449EF08F04BEF08F030EF08F06BEF09
:1010980008F00FC5D9F410C5DAF4DE2A000EDD22F7
:1010A8006BEF08F00FC5D9F410C5DAF4DEC4F6F416
:1010B800DDC4F7F4F86A0800F550046E056A0DC53A
:1010C80006F50EC507F5B6EC0DF04DEF08F0120069
:1010D8000501F46BE5BF75EF08F073EF08F08EEFCC
:1010E80008F0E6C5D9F4E7C5DAF42D0EDF6EF42B67
:1010F800E2C5BBF5E3C5BCF5E4C5BDF5E5C5BEF580
:1011080012EC13F0BBC5E2F5BCC5E3F5BDC5E4F5CB
:10111800BEC5E5F5E2C5BBF5E3C5BCF5E4C5BDF55F
:10112800E5C5BEF549EC0CF0BBC5EDF5BCC5EEF563
:10113800EDC5BBF5EEC5BCF50501F451E625BD6F5F
:10114800000EE721BE6F51EC0DF00501F427F451B4
:10115800E625D96E000EE721DA6E2E0EDF6EF42B2F
:10116800E2C5CBF5E3C5CCF5E4C5CDF5E5C5CEF5CF
:10117800EDC5BBF5EEC5BCF5BD6BBE6B000E52EC04
:1011880009F0BBC5CFF5BCC5D0F5BDC5D1F5BEC509
:10119800D2F56AEC12F0CBC5F0F5CCC5F1F5CDC5AA
:1011A800F2F5CEC5F3F50501EC6B30EF09F0F0C5AB
:1011B800C9F5F1C5CAF5F2C5CBF5F3C5CCF5000EF6
:1011C800CD6F000ECE6F200ECF6F410ED06F6BEC3F
:1011D80002F0C9C5F0F5CAC5F1F5CBC5F2F5CCC525
:1011E800F3F5F0C5BBF5F1C5BCF5F2C5BDF5F3C522
:1011F800BEF549EC0CF00501BB51EF6FF451E62543
:10120800D96E000EE721DA6EEF51300FDF6EF42B46
:10121800F0C5CBF5F1C5CCF5F2C5CDF5F3C5CEF5E6
:10122800EF51BB6FBC6BBD6BBE6B010E52EC09F08E
:10123800BBC5CFF5BCC5D0F5BDC5D1F5BEC5D2F58A
:101248006AEC12F0CBC5F0F5CCC5F1F5CDC5F2F5D9
:10125800CEC5F3F50501EC2BE851EC5DD8A037EFCE
:1012680009F039EF09F0DBEF08F0E951D8A43FEFB6
:1012780009F041EF09F046EF09F0EB6B000EEA6F59
:1012880049EF09F0EB6B0A0EEA6FF451E625D96EC7
:10129800000EE721DA6EEAC5DFF412000501C36F1C
:1012A8000501C351D8B45BEF09F05DEF09F07FEF9A
:1012B80009F0BEBF64EF09F062EF09F07FEF09F0B3
:1012C800BBC5BFF5BCC5C0F5BDC5C1F5BEC5C2F53A
:1012D800BF1FC01FC11FC21FBF2B000EC023C123C9
:1012E800C223BFC5C5F5C0C5C6F5C1C5C7F5C2C5CA
:1012F800C8F587EF09F0BBC5C5F5BCC5C6F5BDC5C2
:10130800C7F5BEC5C8F5BB51BC11BD11BE11D8A4E7
:1013180090EF09F092EF09F09CEF09F0000EBB6F17
:10132800000EBC6F000EBD6F000EBE6F2DEF0AF0F1
:10133800960EC46FA6EF09F0C42BD890C833C733F4
:10134800C633C533000EC515BF6F000EC615C06F76
:10135800000EC715C16FFE0EC815C26FBF51C01170
:10136800C111C211D8A4BBEF09F0BDEF09F0A0EF7D
:1013780009F0CBEF09F0C42B010EC527000EC623D8
:10138800C723C823D890C833C733C633C533000E24
:10139800C515BF6F000EC615C06F000EC715C16F0B
:1013A800FF0EC815C26FBF51C011C111C211D8A418
:1013B800E0EF09F0E2EF09F0BFEF09F0EAEF09F01A
:1013C800C407D890C537C637C737C837C7BFEFEF88
:1013D80009F0F1EF09F0F9EF09F0020EC461F7EF37
:1013E80009F0F9EF09F0E4EF09F0C4B1FEEF09F0F4
:1013F80000EF0AF001EF0AF0C79FD890C433C4C5C4
:10140800BFF5C06BC16BC26BBFC5C2F5C16BC06B0A
:10141800BF6BBF51C513C051C613C151C713C251C9
:10142800C813C351D8B41BEF0AF01DEF0AF025EF1B
:101438000AF0BEBF24EF0AF022EF0AF025EF0AF007
:10144800C88FC5C5BBF5C6C5BCF5C7C5BDF5C8C5FC
:10145800BEF51200096E0950D8B435EF0AF037EF1F
:101468000AF059EF0AF004BE3EEF0AF03CEF0AF02A
:1014780059EF0AF001C505F502C506F503C507F5DC
:1014880004C508F5051E061E071E081E052A000EBF
:1014980006220722082205C50BF506C50CF507C567
:1014A8000DF508C50EF561EF0AF001C50BF502C58B
:1014B8000CF503C50DF504C50EF501500210031017
:1014C8000410D8A46AEF0AF06CEF0AF076EF0AF07D
:1014D800000E016E000E026E000E036E000E046E0A
:1014E80007EF0BF0960E0A6E80EF0AF00A2AD890E2
:1014F8000E320D320C320B32000E0B14056E000E3C
:101508000C14066E000E0D14076EFE0E0E14086EF7
:101518000550061007100810D8A495EF0AF097EFA9
:101528000AF07AEF0AF0A5EF0AF00A2A010E0B2654
:10153800000E0C220D220E22D8900E320D320C32E3
:101548000B32000E0B14056E000E0C14066E000E06
:101558000D14076EFF0E0E14086E055006100710C6
:101568000810D8A4BAEF0AF0BCEF0AF099EF0AF015
:10157800C4EF0AF00A06D8900B360C360D360E3634
:101588000DBEC9EF0AF0CBEF0AF0D3EF0AF0020E56
:101598000A60D1EF0AF0D3EF0AF0BEEF0AF00AB002
:1015A800D8EF0AF0DAEF0AF0DBEF0AF00D9ED890D8
:1015B8000A320AC505F5066A076A086A05C508F504
:1015C800076A066A056A05500B1206500C12075086
:1015D8000D1208500E120950D8B4F5EF0AF0F7EFC3
:1015E8000AF0FFEF0AF004BEFEEF0AF0FCEF0AF083
:1015F800FFEF0AF00E8E0BC501F50CC502F50DC5FF
:1016080003F50EC504F51200BBEC13F01BEC0EF04D
:10161800B80E0501BB6F280EBC6F71EC15F0F20E09
:101628000501BB6F290EBC6F76EC15F0720E050133
:10163800BB6F2A0EBC6F7BEC15F09C0E0501BB6FCF
:10164800230EBC6F8FEC15F0D68ECD0E05018D6F75
:101658004C0E8E6F280E8F6F430E906F8DC5BBF5A5
:101668008EC5BCF58FC5BDF590C5BEF549EC0CF02F
:101678000501BB51A3EC15F0B5C5C9F5B6C5CAF54A
:10168800B7C5CBF5B8C5CCF5000E0501CD6FCC0EAE
:10169800CE6F4C0ECF6F440ED06F6BEC02F0C9C505
:1016A80091F5CAC592F5CBC593F5CCC594F591C50E
:1016B800BBF592C5BCF593C5BDF594C5BEF549EC1F
:1016C8000CF0BBC5C5F5BCC5C6F565EC15F0B3ECAB
:1016D80015F00C0E69EC13F0BBC5B9F5BCC5BAF52D
:1016E800B9C5BBF5BAC5BCF50501BD6BBE6B000E2F
:1016F80052EC09F0BBC5C9F5BCC5CAF5BDC5CBF5EB
:10170800BEC5CCF5010E0501CD6F0A0ECE6FA00E39
:10171800CF6F3A0ED06F6BEC02F0C9C595F5CAC50C
:1017280096F5CBC597F5CCC598F595C5E2F596C560
:10173800E3F597C5E4F598C5E5F5280E0501E66FCC
:10174800060EE76F020EE86F010EE96F6CEC08F009
:1017580040EF0BF00DEF00F05950020D600EF3242E
:10176800D96E050EF420DA6EDE6ADD6A0201B2A7D0
:10177800C0EF0BF0C2EF0BF0E0EF0BF05950020D89
:10178800600EF324D96E050EF420DA6EDF823A502B
:101798003B10D8B4D2EF0BF0D4EF0BF0E0EF0BF026
:1017A80002D8E0EF0BF00500FA6E3A50FD6E3B50A0
:1017B800FE6EFF6AFA5012000201B2A3E6EF0BF0C8
:1017C800E8EF0BF006EF0CF05950020D600EF32411
:1017D800D96E050EF420DA6EDF8438503910D8B48B
:1017E800F8EF0BF0FAEF0BF006EF0CF002D806EF6B
:1017F8000CF00500FA6E3850FD6E3950FE6EFF6A27
:10180800FA5012000201B2AD0CEF0CF00EEF0CF022
:101818002DEF0CF05950020D600EF324D96E050E11
:10182800F420DA6EDF800501A551A611D8B41FEFA8
:101838000CF021EF0CF02DEF0CF002D82DEF0CF08E
:101848000500FA6EA551FD6EA651FE6EFF6AFA50AC
:101858001200A1C201F55928070B026E5850021850
:10186800D8A439EF0CF03BEF0CF03DEF0CF048EF4B
:101878000CF07D0E5924D96EDA6A050EDA2201C5FC
:10188800DFF402C559F5572A12000501BD35BE35EA
:10189800C46FC451D8A453EF0CF055EF0CF05FEFB0
:1018A8000CF0000EBB6F000EBC6F000EBD6F000E7B
:1018B800BE6FCCEF0CF0BBC5BFF5BCC5C0F5BDC550
:1018C800C1F5BEC5C2F5200E6FEF0CF0D890C2333B
:1018D800C133C033BF33E82E6AEF0CF0BF51C36F7A
:1018E800BD8FFF0EBB17FF0EBC17FF0EBD17000EF6
:1018F800BE17960EC45FC4BF86EF0CF084EF0CF0E1
:101908009CEF0CF0C451800A970FD8B08EEF0CF002
:1019180090EF0CF092EF0CF055EF0CF0D890BE332E
:10192800BD33BC33BB33C43F92EF0CF0B4EF0CF0C3
:101938001F0EC465A2EF0CF0A4EF0CF0ACEF0CF096
:1019480055EF0CF0D890BB37BC37BD37BE37C4074E
:10195800C451D8A4B2EF0CF0B4EF0CF0A6EF0CF021
:10196800C351D8B4BAEF0CF0BCEF0CF0C4EF0CF0D4
:10197800BE1FBD1FBC1FBB6D000EBC23BD23BE23F5
:10198800BBC5BBF5BCC5BCF5BDC5BDF5BEC5BEF583
:101998001200210E32EC14F0000E32EC14F07F0E1F
:1019A80032EC14F0220E32EC14F0000E32EC14F08B
:1019B800070E32EC14F0400E0501D56F040EE96FE6
:1019C800000EE86FED6B000EEC6F45EF0DF0EC517B
:1019D800E85DEA6FED51E959EB6FEB5107E1110E44
:1019E800EA5DD8B0FAEF0CF0FCEF0CF002EF0DF066
:1019F800EAC5E6F5EBC5E7F505EF0DF0E76B100E68
:101A0800E66FE6C5EEF5EF6B28EF0DF0300ED16FFF
:101A1800060ED26FEF51D127000ED223EC51D125FB
:101A2800D96EED51D221DA6EEF51D36FD46B010E1E
:101A3800D327000ED423D50ED325E16E050ED4216D
:101A4800E26EDFC4E7F4EF2BEE51EF5DD8A02FEF85
:101A58000DF031EF0DF00AEF0DF0C46B3C0EC36FC3
:101A6800D50EC56F050EC66F010EEE25C76FC86B84
:101A7800000EC823DBEC0EF00501EE51EC27000E3A
:101A8800ED23E851EC5DE951ED59D8A04EEF0DF08A
:101A980050EF0DF0EBEF0CF012000501C16BC26BBB
:101AA800C46BC36B6EEF0DF0C451020DF00EF3243E
:101AB800F66EFF0EF420F76EF86A000EF8220900A1
:101AC800F5C4BFF50900F5C4C0F5BF51BB5FC051EF
:101AD800BC5BC32BC451020DF00EF324F66EFF0E4F
:101AE800F420F76EF86A000EF8220900F550BB5D85
:101AF8000900F550BC59D8B084EF0DF086EF0DF011
:101B080058EF0DF0C351D8A48CEF0DF08EEF0DF007
:101B18009FEF0DF0C151D8A494EF0DF096EF0DF0A2
:101B28009FEF0DF0040EC419D8A49DEF0DF09FEFA0
:101B38000DF0ABEF0DF0C251BD25D96E000EBE21E0
:101B4800DA6EC351300FDF6EC22B010EC16FC42B8A
:101B5800040EC465B2EF0DF0B4EF0DF055EF0DF0C3
:101B6800C251120006500710D8B4BDEF0DF0BFEFF8
:101B78000DF0C8EF0DF006500710D8A4C6EF0DF011
:101B8800C8EF0DF0CDEF0DF00450DEEC14F01AEFB5
:101B98000EF020EE09F00650D9260750DA22DE5062
:101BA800DE10D8B4DAEF0DF0DCEF0DF0F7EF0DF042
:101BB80020EE09F00650D9260750DA2210EE02F07E
:101BC8000650E1260750E222DE50E65CE650800A25
:101BD8000C6EDE50800A0C58D8B0F5EF0DF0F7EF18
:101BE8000DF01AEF0EF020EE02F00650D92607503D
:101BF800DA22DEC408F5DDC409F506C5D9F407C53F
:101C0800DAF4DEC40AF5DDC40BF508500A24D96EEF
:101C180009500B20DA6E04C5DFF420EE02F00650FE
:101C2800D9260750DA22DE2A000EDD221200090E1C
:101C38000501F16F1E0EF06FE40EE82EFED7F02FAF
:101C4800FCD7F12FFAD70000AE0E32EC14F0D50E07
:101C580032EC14F0800E32EC14F0A80E32EC14F0D2
:101C68003F0E32EC14F0D30E32EC14F0000E32ECCE
:101C780014F0400E32EC14F08D0E32EC14F0140E09
:101C880032EC14F0200E32EC14F0000E32EC14F0AA
:101C9800A10E32EC14F0C80E32EC14F0DA0E32EC6D
:101CA80014F0120E32EC14F0810E32EC14F0CF0E58
:101CB80032EC14F0D90E32EC14F0F10E32EC14F0D0
:101CC800DB0E32EC14F0400E32EC14F0A40E32ECC1
:101CD80014F0A60E32EC14F02E0E32EC14F0AF0E07
:101CE80032EC14F0CFEC14F0CDEC0CF01200066AD4
:101CF80004BE83EF0EF081EF0EF089EF0EF0036C57
:101D0800041ED8B0042A010E066E02BE90EF0EF033
:101D18008EEF0EF096EF0EF0016C021ED8B0022A7C
:101D2800010E061A086A000E076E03500410D8B494
:101D3800A0EF0EF0A2EF0EF0CAEF0EF0010E056E46
:101D4800AAEF0EF0D89003360436052A04AEAFEF9A
:101D58000EF0B1EF0EF0A6EF0EF0D8900736083669
:101D68000350015C04500258D8A0BDEF0EF0BFEF3D
:101D78000EF0C4EF0EF00350015E0450025A0780C3
:101D8800D89004320332052EB1EF0EF00650D8B4C5
:101D9800D0EF0EF0D2EF0EF0D6EF0EF0076C081E63
:101DA800D8B0082A07C501F508C502F51200E80EE3
:101DB8000501CA6F030ECB6F000ECC6F000ECD6FFE
:101DC800C3C5BCF5C4C5BDF5C5C5BEF5C6C5BFF51B
:101DD800C7C5C0F5C8C5C1F5A2EC11F00009D8A463
:101DE800F8EF0EF0FAEF0EF00BEF0FF031EF0FF007
:101DF800150E0501C96FC60EE82EFED7C92FFCD7F0
:101E080000000501CA07000ECB5BCC5BCD5BEDEC97
:101E180013F00009D8B413EF0FF015EF0FF021EF0E
:101E28000FF00501CA51CB11CC11CD11D8A41FEF69
:101E38000FF021EF0FF0FCEF0EF00501CA51CB11A6
:101E4800CC11CD11D8A42BEF0FF02DEF0FF02FEF01
:101E58000FF031EF0FF06BEC15F01200066A02BEBE
:101E68003AEF0FF038EF0FF040EF0FF0016C021E61
:101E7800D8B0022A010E066E04BE47EF0FF045EFF8
:101E88000FF04BEF0FF0036C041ED8B0042A035078
:101E98000410D8B452EF0FF054EF0FF078EF0FF0B2
:101EA800010E056E5CEF0FF0D89003360436052A54
:101EB80004AE61EF0FF063EF0FF058EF0FF003502F
:101EC800015C04500258D8A06CEF0FF06EEF0FF0D1
:101ED80072EF0FF00350015E0450025AD89004329A
:101EE8000332052E63EF0FF00650D8B47EEF0FF0E3
:101EF80080EF0FF084EF0FF0016C021ED8B0022AB9
:101F080001C501F502C502F51200020197AB8FEF7A
:101F18000FF091EF0FF09AEF0FF0030E05017C6FB1
:101F28000201979BF2EC12F0D7EF0FF098A79FEF02
:101F38000FF0A1EF0FF0B1EF0FF095ABA6EF0FF098
:101F4800A8EF0FF0B1EF0FF0010E05017C6F020151
:101F58009799949D9587D7EF0FF098A7B6EF0FF054
:101F6800B8EF0FF0C8EF0FF095ABBDEF0FF0BFEF74
:101F78000FF0C8EF0FF0020E05017C6F0201979970
:101F8800949D9587D7EF0FF097ADCDEF0FF0CFEF7A
:101F98000FF0D6EF0FF0030E05017C6F0201979D3D
:101FA800D7EF0FF0979905017C511200AC90600EA5
:101FB8000501AB6F170EAC6FAC920C0EAD6F270E10
:101FC800AE6FAC96600EA96F2B0EAA6F0201A26BC2
:101FD800A46BA56BA66BA76BA86BA96BAA6BB00EBD
:101FE800AB6F800EAC6F080EAD6FA00EAE6F010E1A
:101FF800AF6F2E0EB06FB16B800EB26FB36B780EF1
:102008000501BB6F2B0EBC6FB1EC14F0760E050109
:10201800BB6F2B0EBC6FA2EC14F0740E0501BB6FE6
:102028002B0EBC6F93EC14F00501A86B000EA76F84
:102038005C6A5B6A080E5A6E596A586A576AAC80BD
:10204800AC861200BE6AC00EBF6EC06A0401026B85
:10205800C00E0A6F126B1B0EC66E300EC76E7A0E5C
:10206800C86E070E006F300E086F3F0E106F100E0F
:10207800016F096B116B370E036FF00E0B6F13694D
:102088003F0E046FF00E0C6F14690201876B010E8E
:10209800866F160E726F100E186F0A0E116F0F0EE4
:1020A800716F210E106F0E0E706F220E0F6F0401EC
:1020B800056B100E066F076B0D6B0E6B0F6B156BB8
:1020C800166B176B800E0501BB6F2B0EBC6F8FEC68
:1020D80015F0A88E120002019BA575EF10F077EF9E
:1020E80010F082EF10F09AA57CEF10F07EEF10F060
:1020F80082EF10F047EC14F0B6EF10F09BAF87EFCB
:1021080010F089EF10F0A6EF10F09AAF8EEF10F0F4
:1021180090EF10F0A6EF10F005017B51D8B497EFBF
:1021280010F099EF10F0A1EF10F07B6B02019A917B
:102138009A9F1CEC14F0B6EF10F00201949D95875D
:102148007EEF10F09BA3ABEF10F0ADEF10F0B6EF01
:1021580010F09AA3B2EF10F0B4EF10F0B6EF10F051
:10216800949D9A931200720EF66E2B0EF76E000E67
:10217800F86E0900F5C4F7F50900F5C4F8F501EEA5
:1021880030F211EE00F0EE6AE550E150FCE1E25069
:10219800FAE101EE00F2300EEE6AE806FDE101EE2A
:1021A80060F15B0EEE6AE806FDE101EE31F12E0EFC
:1021B800EE6AE806FDE10401080E5D6F000E5E6F31
:1021C800000E5F6F000108EF0BF0606A020E616E8F
:1021D800626A6368F90E646E656A666A676A686A45
:1021E800010E6A6E6B6A7D0E6C6E6D6A7D0E6E6E88
:1021F800B79CB79E67906792AC9EAC9C000E050199
:10220800BB6F000EBC6F85EC15F0000E0501BB6FAF
:10221800000EBC6F80EC15F0000E0501BB6F000EC0
:10222800BC6F8AEC15F0800E696E12000301F39FF3
:10223800D96BDA6BDB6BDC6BDF6BE06BE56BE76B49
:10224800120EEC6FEE6BEF6BD86BF06BF16BF26B01
:10225800F46B180EF56F100EF66FF76BF86B1F0E18
:10226800FA6FF96B000E0501B36F000EB46F000E24
:10227800B16F000EB26F5D6AB494A994B590AA903C
:10228800C40E0301F36F1200040E0201946F800E56
:10229800956F080E966F010E9E6F9A6B9B6B976BEE
:1022A8008C6B8D6B1F0E9D6F9F6B510E866F25EC8F
:1022B80015F002019B919B95948F050EE82EFED791
:1022C8000000000000000000000000000000020103
:1022D8009A919A959B85000E0501AF6F000EB06F1D
:1022E800120042C501F543C502F58EEC12F03C4AD6
:1022F8003D2A3D5009E14B0E3C5CD8A086EF11F019
:1023080088EF11F0A0EF11F040504110D8B48FEFD2
:1023180011F091EF11F09DEF11F002D89DEF11F03F
:102328000500FA6E4050FD6E4150FE6EFF6AFA508D
:1023380012003D6A000E3C6EB69812000501C26B91
:10234800EDEC13F00009D8A4ACEF11F0AEEF11F0EA
:10235800CBEF11F0010E0501706FBCC571F5BDC55D
:1023680072F57B6BBEC573F5BFC574F5C0C575F551
:10237800C1C576F5000E776F000E786F7A6B000E88
:10238800796F7C6BB1EC12F0010E0501C26F05018B
:10239800C2511200ACEC15F05E6E000E0F6E000E0E
:1023A800106E7A0E116E440E126E5E50016E026A45
:1023B800036A046A010E2EEC0AF001C513F502C582
:1023C80014F503C515F504C516F57FEC04F00FC523
:1023D800B5F510C5B6F511C5B7F512C5B8F5000EB7
:1023E800A8EC15F01200464A472AF40E465C010E86
:1023F8004758D8A002EF12F004EF12F01CEF12F0C9
:1024080048504910D8B40BEF12F00DEF12F019EF45
:1024180012F002D819EF12F00500FA6E4850FD6E5E
:102428004950FE6EFF6AFA501200476A000E466E67
:10243800B69612001FC523F520C524F532EF12F019
:102448001DC50DF51EC50EF5230E0F6E050E106E7B
:1024580021C511F522C512F568EC07F023C5F6F47D
:1024680024C5F7F4F86A0800F5500009D8A43FEF2E
:1024780012F041EF12F024EF12F01E6A000E1D6EEA
:102488001200026EACB24BEF12F04DEF12F051EFAA
:1024980012F002C5A3F268EF12F05A50D8B457EF01
:1024A80012F059EF12F068EF12F0850E5C24D96E25
:1024B800DA6A050EDA2202C5DFF45C28070B016E22
:1024C80001C55CF5AC925A06AC821200000E0501FB
:1024D800CF1B000ED01B000ED11B800ED21BCBC50C
:1024E800BBF5CCC5BCF5CDC5BDF5CEC5BEF5CFC5D4
:1024F800BFF5D0C5C0F5D1C5C1F5D2C5C2F50FEC41
:1025080000F0BBC5CBF5BCC5CCF5BDC5CDF5BEC58A
:10251800CEF51200030114A594EF12F096EF12F015
:10252800ACEF12F014B19BEF12F09EEF12F0010E17
:102538009FEF12F0000E036E0250136F01C512F3E5
:1025480003B002D0149102D003011481B0EF12F04D
:102558000250136F01C512F312000501755176116F
:10256800D8B4B9EF12F0BBEF12F0CBEF12F07651FE
:1025780002018D6F75C58CF205017B51D8B4C7EF88
:1025880012F0C9EF12F0CBEF12F00201948D0501A1
:102598007151712502018F6F948B12000301149100
:1025A800156B166B010E176F630E136FBF0E126F4C
:1025B80013510501BB6F03011251426EBBC543F5B0
:1025C8007C0E406E2B0E416E000E3E6E000E3F6E6E
:1025D800B698AB88B69A350E146F120002019A6B42
:1025E800979B979D979957EC15F00201996B9985E0
:1025F800949F4DEC15F002019B919B95948F050ECD
:10260800E82EFED7000000000000000000000000D7
:10261800000002019A919A959B8512000501BB5111
:10262800BC11BD11BE11D8B41CEF13F01EEF13F08E
:1026380026EF13F0000EBB1B000EBC1B000EBD1BCB
:10264800800EBE1BBBC5BBF5BCC5BCF5BDC5BDF585
:10265800BEC5BEF51200D69AB490D690000E0501FC
:10266800BB6F000EBC6F9EEC15F0B990D682000EC1
:102678000501BB6F000EBC6F99EC15F0BD90D684B8
:10268800000E0501BB6F000EBC6F94EC15F0120034
:10269800BBC5C1F5BCC5C2F55AEF13F0C1C5D9F425
:1026A800C2C5DAF4BDC5DFF4C14BC22B0501BF07B3
:1026B800D8A0C007BF2906E1C029D8A466EF13F047
:1026C80068EF13F052EF13F012000501BF6FBFC59A
:1026D800ECF30301F39DF381F3B175EF13F077EF9A
:1026E80013F070EF13F0EB510501BE6FBD6B0301E2
:1026F800EA510501BD25BB6F0301000E0501BE218E
:10270800BC6F1200080E5A608CEF13F08EEF13F0B6
:102718009FEF13F0850E5B24D96EDA6A050EDA2274
:10272800DF500201A36F5B28070B016E01C55BF543
:102738005A2AA0EF13F0AC92120008BEA6EF13F0CD
:10274800A8EF13F0AEEF13F007C507F508C508F5B5
:10275800BAEF13F007C509F508C50AF5091E0A1EE0
:10276800094A0A2A09C507F50AC508F512002FEC17
:1027780015F026EC10F01AEC11F048EC11F0C0EC52
:1027880014F0D2EC12F082EC14F05FEC15F0EDECE2
:1027980014F0E9EC10F0DAEC0FF02FEC13F0120063
:1027A8000501F551F611D8B4DCEF13F0DEEF13F0A4
:1027B800EAEF13F002D8EAEF13F00500FA6EF551CC
:1027C800FD6EF651FE6EFF6AFA5012000401079979
:1027D8001200010E0501BB6F7051D8A4F6EF13F07B
:1027E800F8EF13F002EF14F0020198AFFEEF13F0C8
:1027F80000EF14F002EF14F00501BB6B0501BB51AB
:10280800120044504510D8B40CEF14F00EEF14F039
:102818001AEF14F002D81AEF14F00500FA6E4450BB
:10282800FD6E4550FE6EFF6AFA501200B69E120009
:10283800050179517A11D8B424EF14F026EF14F079
:102848002BEF14F07A5102018D6F79C58CF2D88084
:102858000501713502018F6F948B12000501CE6F4F
:102868000501D06B000ECF6FCEC5D0F5C46B3C0E02
:10287800C36FCF0EC56F050EC66FC86B020EC76F4C
:10288800DBEC0EF012000501706B000E726F7169BF
:10289800000E736F000E746F000E776F000E786F66
:1028A80002019A6B979B979D9799996B998512004E
:1028B800BEBA61EF14F064EF14F0010E65EF14F086
:1028C800000EFF0A016E013A0146BE500118DF0BE7
:1028D8000118BE6E1200270E296E050E2A6E000E14
:1028E8001D6E000E1E6E25C51FF526C520F5290E86
:1028F800216E050E226E1EEC12F01200010E03016D
:10290800206F1F6B216BF90E1D6F1C6B7A0E486EC2
:102918002B0E496EB696AB86F00E1E6F120005019F
:10292800BB51BC11D8B49BEF14F09DEF14F0A1EF8C
:1029380014F0BBC5A5F5BCC5A6F512000501BB5131
:10294800BC11D8B4AAEF14F0ACEF14F0B0EF14F047
:10295800BBC538F5BCC539F512000501BB51BC1122
:10296800D8B4B9EF14F0BBEF14F0BFEF14F0BBC547
:102978003AF5BCC53BF51200F30E0301196F186B4D
:102988005E0E1B6F7E0E446E2B0E456EB69EAB8E92
:10299800800E1A6F1200300E0501BB6F060EBC6F59
:1029A800BE6B000EBD6F040EC06F000EBF6F4CEC07
:1029B80013F01200036E04EC15F00009D8B4E7EF29
:1029C80014F0E9EF14F0DFEF14F0035045EC12F0C7
:1029D80012000F0E0001A46F120EA56F800EA66FD5
:1029E800A76BA96B800EA36F1200FA0E256EFF0E5F
:1029F800266EB9C527F5BAC528F56FEC14F0120094
:102A08005A50D8A40AEF15F00DEF15F0010E0EEF8D
:102A180015F0000E1200040107A915EF15F017EFC5
:102A280015F019EF15F0D4EC13F0120073C5D9F4B2
:102A380074C5DAF4DF5002018B6F0501734B742BF8
:102A48001200AF84AF86AF80AF8202019B859B8363
:102A58009B8F97811200600E0001AD6FAF6BB36B57
:102A6800080EB16FB06BAC6B1200000E0501B56FAC
:102A7800000EB66F000EB76F000EB86F120077C564
:102A8800D9F478C5DAF48AC2DFF40501774B782BDC
:102A98001200AF84AF86AF80AF8202019B859B8313
:102AA8009B8F97811200AF94AF96AF90AF920201BF
:102AB8009B6B976B1200A00E00017F6FA90E7D6FB4
:102AC8001200C5C56BF40501C6516C6E12007CC5B9
:102AD800BBF505017C6BBB511200BBC548F5BCC5F5
:102AE80049F51200BBC540F5BCC541F51200BBC590
:102AF80044F5BCC545F51200BBC552F5BCC553F538
:102B08001200BBC554F5BCC555F51200BBC550F540
:102B1800BCC551F51200BBC5F5F5BCC5F6F51200EC
:102B2800BBC54AF5BCC54BF51200BBC54CF5BCC5C9
:102B38004DF51200BBC54EF5BCC54FF51200050199
:102B4800C56FC5C57DF01200016E01C518F31200EE
:102B580018C301F5015012000201B19F12006984E7
:102B68001200B5901200B494120040001200120036
:0A2B780012001200120012001200F9
:10F7A200000810205F0000000000000000000000C0
:10F7B2000000000000000000F8000000000000004F
:10F7C200333000000000100C06100C060000000090
:10F7D200000000000040C07840C0784000043F04B0
:10F7E200043F040400007088FC0830000000182068
:10F7F200FF211E0000F008F000E018000000211CAC
:10F80200031E211E0000F00888700000001E212344
:10F81200241927211010160E00000000000000001D
:10F822000000000000000000E018040200000000D8
:10F83200071820400000020418E0000000004020E9
:10F842001807000000404080F080404000020201A2
:10F852000F01020200000000F0000000000101019F
:10F862001F01010100000000000000000080B070D4
:10F872000000000000000000000000000000010184
:10F882000101010101000000000000000000303011
:10F8920000000000000000000080601804006018F2
:10F8A200060100000000E010080810E000000F1040
:10F8B2002020100F00001010F8000000000020208F
:10F8C2003F202000000070080808887000003028DF
:10F8D2002422213000003008888848300000182097
:10F8E2002020110E000000C02010F80000000704C4
:10F8F20024243F240000F808888808080000192101
:10F902002020110E0000E0108888180000000F115E
:10F912002020110E0000380808C838080000000036
:10F922003F000000000070880808887000001C2258
:10F932002121221C0000E010080810E00000003124
:10F942002222110F00000000C0C0000000000000D1
:10F952003030000000000000800000000000008045
:10F96200600000000000008040201008000001023A
:10F97200040810200040404040404040000404047D
:10F98200040404040000081020408000000020103D
:10F992000804020100007048080808F00000000096
:10F9A2003036010000C030C828E810E000071827F0
:10F9B2002423140B000000C038E0000000203C2388
:10F9C200020227382008F8888888700000203F202B
:10F9D2002020110E00C0300808080838000718203F
:10F9E200202010080008F808080810E000203F2036
:10F9F2002020100F0008F88888E8081000203F2017
:10FA0200202320180008F88888E8081000203F20EA
:10FA12000003000000C03008080838000007182062
:10FA220020221E020008F808000008F808203F21E2
:10FA32000101213F20000808F808080000002020EA
:10FA42003F2020000000000808F8080800C080805D
:10FA5200807F00000008F888C028180800203F2096
:10FA6200012638200008F8080000000000203F208E
:10FA7200202020300008F8F800F8F80800203F00A5
:10FA82003F003F200008F830C00008F808203F205F
:10FA92000007183F00E01008080810E0000F1020CF
:10FAA2002020100F0008F808080808F000203F2165
:10FAB2000101010000E01008080810E0000F1824FE
:10FAC2002438504F0008F8888888887000203F202A
:10FAD20000030C3020007088080808380000382025
:10FAE2002121221C00180808F8080818000000202C
:10FAF2003F2000000008F808000008F808001F2056
:10FB02002020201F000878880000C838080000075D
:10FB1200380E010000F80800F80008F800033C075E
:10FB220000073C0300081868808068180820302C01
:10FB320003032C30200838C800C838080000002011
:10FB42003F2000000010080808C8380800203826A6
:10FB52002120201800000000FE0202020000000026
:10FB62007F40404000000C30C00000000000000058
:10FB7200010638C00000020202FE00000000404000
:10FB8200407F0000000000040202020400000000A6
:10FB920000000000000000000000000000808080E3
:10FBA20080808080800002020400000000000000CB
:10FBB2000000000000000080808080000000192406
:10FBC2002222223F2008F8008080000000003F111E
:10FBD2002020110E000000008080800000000E1125
:10FBE2002020201100000000808088F800000E1103
:10FBF2002020103F200000808080800000001F2213
:10FC02002222221300008080F08888881800202099
:10FC12003F202000000000808080808000006B94E4
:10FC2200949493600008F8008080800000203F21B7
:10FC32000000203F20008098980000000000202053
:10FC42003F20200000000000809898000000C08043
:10FC520080807F000008F8000080808000203F2420
:10FC6200022D302000000808F800000000002020CB
:10FC72003F202000008080808080808000203F2004
:10FC8200003F20003F8080008080800000203F21D4
:10FC92000000203F200000808080800000001F20A4
:10FCA2002020201F00808000808000000080FFA1B3
:10FCB2002020110E000000008080808000000E11C4
:10FCC2002020A0FF80808080008080800020203F54
:10FCD2002120000100000080808080800000332409
:10FCE2002424241900008080E080800000000000AD
:10FCF2001F202000008080000000808000001F2064
:10FD02002020103F20808080000080808000010E33
:10FD1200300806010080800080008080800F300C57
:10FD2200030C300F000080800080808000002031B2
:10FD32002E0E312000808080000080808080818EA5
:10FD420070180601000080808080808000002130D1
:10FD52002C2221300000000000807C020200000002
:10FD620000003F404000000000FF000000000000D3
:10FD720000FF0000000002027C8000000000404002
:10FD82003F0000000000060101020204040000001E
:10FD920000000000000608205F00000000000000D4
:10FDA20000002F000000000700070000147F147FEE
:10FDB2001400242A7F2A12002313086462003649A1
:10FDC20055225000000503000000001C22410000E3
:10FDD2000041221C000014083E08140008083E08D6
:10FDE20008000000A0600000080808080800006081
:10FDF200600000002010080402003E5149453E0008
:10FE020000427F4000004261514946002141454B7A
:10FE120031001814127F10002745454539003C4A2D
:10FE22004949300001710905030036494949360044
:10FE3200064949291E0000363600000000563600E9
:10FE4200000008142241000014141414140000418C
:10FE520022140800020151090600324959513E009C
:10FE62007C1211127C007F49494936003E414141D2
:10FE720022007F4141221C007F49494941007F09FC
:10FE8200090901003E4149497A007F0808087F00BC
:10FE920000417F4100002040413F01007F081422C1
:10FEA20041007F40404040007F020C027F007F04FF
:10FEB20008107F003E4141413E007F0909090600CA
:10FEC2003E4151215E007F091929460046494949B0
:10FED200310001017F0101003F4040403F001F20EF
:10FEE20040201F003F4038403F0063140814630065
:10FEF200070870080700615149454300007F4141EE
:10FF02000000552A552A55000041417F0000040295
:10FF12000102040040404040400000010204000091
:10FF22002054545478007F484444380038444444B0
:10FF32002000384444487F00385454541800087E46
:10FF42000901020018A4A4A47C007F08040478001C
:10FF520000447D4000004080847D00007F102844E2
:10FF6200000000417F4000007C04180478007C08F7
:10FF720004047800384444443800FC242424180043
:10FF820018242418FC007C08040408004854545423
:10FF92002000043F444020003C4040207C001C20C4
:10FFA20040201C003C4030403C00442810284400C3
:10FFB2001CA0A0A07C004464544C440000087700BC
:10FFC200000000007F000000007708000000100819
:10FFD2001008001414141414140090220000442376
:10FFE200000000000000D62ADA27000000001027D7
:0DFFF200E80364000A00010025640A000015
:020000040030CA
:090000008CFFF7FF9FFFFFFFFFDB
:00000001FF
