:040000000DEF00F010
:04000800C4EF04F04D
:10001800FF00B6EF08F005016351800B6C6F635168
:100028006325726F62AF1BEF00F01DEF00F01EEF4B
:1000380000F072817251D8B424EF00F026EF00F07E
:1000480039EF00F07229D8A42CEF00F02EEF00F061
:1000580036EF00F0000E606F000E616F000E626FE9
:10006800000E636F628F41EF00F0000E606F000EAC
:10007800616F000E626F000E636F6751800B6C1B1F
:10008800675167256D6F66AF4CEF00F04EEF00F0DB
:100098004FEF00F06D816D51D8B455EF00F057EF78
:1000A80000F06AEF00F06D29D8A45DEF00F05FEF73
:1000B80000F067EF00F0000E646F000E656F000E31
:1000C800666F000E676F668F72EF00F0000E646F48
:1000D800000E656F000E666F000E676F6D51D8B425
:1000E80078EF00F07AEF00F082EF00F07251D8A4B8
:1000F80080EF00F082EF00F08CEF00F0000E606FF0
:10010800000E616F000E626F000E636F22EF02F047
:1001180066516003F3C477F5F4C478F577516E6FD0
:100128006F6B706B716B7851736F746B756B766BEB
:1001380065516103F3C477F5F4C478F577516E27F8
:10014800000E6F237023712378517327000E7423D8
:100158007523762364516203F3C477F5F4C478F504
:1001680077516E27000E6F23702371237851732700
:10017800000E74237523762370C571F56FC570F56D
:100188006EC56FF56E6B64516103F3C477F5F4C403
:1001980078F577516E2778516F23000E7023000E83
:1001A800712365516003F3C477F5F4C478F577518A
:1001B8006E2778516F23000E7023000E712370C5CF
:1001C80071F56FC570F56EC56FF56E6B64516003A0
:1001D800F3C477F5F4C478F577516E2778516F2317
:1001E800000E7023000E712366516103F3C477F586
:1001F800F4C478F57751732778517423000E75236A
:10020800000E762365516203F3C477F5F4C478F5DC
:100218007751732778517423000E7523000E7623C7
:1002280066516203F3C477F5F4C478F57751686FC3
:100238007851696F6A6B6B6B6AC56BF569C56AF54E
:1002480068C569F5686B68517327695174236A51E9
:1002580075236B5176236EC568F56FC569F570C552
:100268006AF571C56BF5190E3FEF01F0D8906B3345
:100278006A3369336833E82E3AEF01F0685173271F
:10028800695174236A5175236B51762370C571F5D2
:100298006FC570F56EC56FF56E6B6D5172C568F5FB
:1002A800696B6827000E6923820E6825776FFF0E39
:1002B8006921786F75EF01F0D89073377437753707
:1002C800763771AF6AEF01F06CEF01F06DEF01F076
:1002D8007381D8906E376F37703771377707D8A02A
:1002E800780775AF7AEF01F07CEF01F060EF01F06D
:1002F8006D6B71AF82EF01F084EF01F0A8EF01F0B0
:10030800FF0E6E15686FFF0E6F15696FFF0E701583
:100318006A6F7F0E71156B6F685169116A116B11E5
:10032800D8B499EF01F09BEF01F09FEF01F0010EB7
:100338006D6FA8EF01F073A1A4EF01F0A6EF01F033
:10034800A8EF01F09BEF01F06D51D8B4AEEF01F0CA
:10035800B0EF01F0D4EF01F0010E7327000E742303
:100368007523762376A1BBEF01F0BDEF01F0D4EF42
:1003780001F073C568F574C569F575C56AF576C584
:100388006BF56B356B336A336933683368C573F55E
:1003980069C574F56AC575F56BC576F5774B782B25
:1003A80078BFDFEF01F0785108E17729D8A0DFEFB7
:1003B80001F0E1EF01F0EBEF01F0000E736F000EBA
:1003C800746F800E756F7F0E766F18EF02F078BF2E
:1003D800F8EF01F0785106E17705D8B0F6EF01F0B3
:1003E800F8EF01F003EF02F0000E736F000E746F68
:1003F800000E756F000E766F6C6B18EF02F077C504
:1004080072F5FF0E7317FF0E74177F0E7517000E27
:10041800761772A112EF02F014EF02F015EF02F056
:10042800758FD8907231766F6C51761373C560F5FD
:1004380074C561F575C562F576C563F5120012508D
:10044800800B1F6E12501224266E11AE2EEF02F092
:1004580030EF02F031EF02F026802650D8B437EFA3
:1004680002F039EF02F04DEF02F02628D8A43FEF52
:1004780002F041EF02F049EF02F0000E0F6E000E9D
:10048800106E000E116E000E126E118E126A55EF6C
:1004980002F0000E0F6E000E106E000E116E000EB0
:1004A800126E1650800B1F1A16501624276E15AEA2
:1004B80060EF02F062EF02F063EF02F0278027504E
:1004C800D8B469EF02F06BEF02F07FEF02F0272853
:1004D800D8A471EF02F073EF02F07BEF02F0000E88
:1004E800136E000E146E000E156E000E166E158E2D
:1004F800166A87EF02F0000E136E000E146E000EDF
:10050800156E000E166E1350141015101610D8A480
:1005180090EF02F092EF02F0AAEF02F0000E0F6ED9
:10052800000E106E000E116E000E126E800E11126B
:100538007F0E12121F5012120FC50FF510C510F5BD
:1005480011C511F512C512F5E9EF03F02650D8A42C
:10055800B0EF02F0B2EF02F0BCEF02F0000E0F6E47
:10056800000E106E000E116E000E126EE9EF03F011
:10057800275026C517F5186A175E000E185A7F0E01
:100588001724206E000E1820216E0FC51BF510C50C
:100598001CF511C51DF512C51EF5000E0F6E000ED7
:1005A800106E000E116E000E126E000E226E000EFE
:1005B800236E000E246E000E256E276A1CEF03F0D2
:1005C8002750D8B4EAEF02F0ECEF02F003EF03F0A3
:1005D800D8901B361C361D361E36D8900F3610366E
:1005E8001136123625AEFBEF02F0FDEF02F0FEEFFA
:1005F80002F00F80D8902236233624362536135041
:100608001B5C14501C5815501D5816501E58D8A065
:1006180010EF03F012EF03F01BEF03F0258C1350DB
:100628001B5E14501C5A15501D5A16501E5A272A64
:10063800190E276422EF03F024EF03F0E4EF02F031
:100648001B501C101D101E10D8B42DEF03F02FEFF7
:1006580003F047EF03F0228047EF03F0D8900F36FE
:1006680010361136123625AE3CEF03F03EEF03F09C
:100678003FEF03F00F80D8902236233624362536F4
:100688002006D8A0210611AE4CEF03F04EEF03F080
:1006980032EF03F0276A25AE54EF03F056EF03F06C
:1006A8007AEF03F0FF0E2214176EFF0E2314186E54
:1006B800FF0E2414196E7F0E25141A6E1750181089
:1006C80019101A10D8B46BEF03F06DEF03F071EF47
:1006D80003F0010E276E7AEF03F00FA076EF03F018
:1006E80078EF03F07AEF03F06DEF03F02750D8B4FA
:1006F80080EF03F082EF03F0A6EF03F0010E0F2660
:10070800000E10221122122212A08DEF03F08FEF9B
:1007180003F0A6EF03F00FC517F510C518F511C5BE
:1007280019F512C51AF51A341A3219321832173255
:1007380017C50FF518C510F519C511F51AC512F525
:10074800204A212A21BEB1EF03F0215008E12028D8
:10075800D8A0B1EF03F0B3EF03F0BEEF03F0000E43
:10076800216E2068000E0F6E000E106E000E116EC6
:10077800000E126E21BECBEF03F0215006E12004DB
:10078800D8B0C9EF03F0CBEF03F0D7EF03F0216A3D
:10079800000E206E000E0F6E000E106E000E116E11
:1007A800000E126E1F6A20C526F526A0DEEF03F0A4
:1007B800E0EF03F0E3EF03F0118EE4EF03F0119E96
:1007C800D8902630126E9EEF02F01200096E095082
:1007D800D8B4F1EF03F0F3EF03F015EF04F004BE23
:1007E800FAEF03F0F8EF03F015EF04F001C505F593
:1007F80002C506F503C507F504C508F5051E061E5E
:10080800071E081E052A000E06220722082205C513
:100818000BF506C50CF507C50DF508C50EF51DEF5A
:1008280004F001C50BF502C50CF503C50DF504C5AB
:100838000EF50150021003100410D8A426EF04F09E
:1008480028EF04F032EF04F0000E016E000E026E85
:10085800000E036E000E046EC3EF04F0960E0A6ECF
:100868003CEF04F00A2AD8900E320D320C320B32CB
:10087800000E0B14056E000E0C14066E000E0D14FF
:10088800076EFE0E0E14086E0550061007100810AD
:10089800D8A451EF04F053EF04F036EF04F061EF01
:1008A80004F00A2A010E0B26000E0C220D220E223D
:1008B800D8900E320D320C320B32000E0B14056E2E
:1008C800000E0C14066E000E0D14076EFF0E0E14AB
:1008D800086E0550061007100810D8A476EF04F02B
:1008E80078EF04F055EF04F080EF04F00A06D89092
:1008F8000B360C360D360E360DBE85EF04F087EF3D
:1009080004F08FEF04F0020E0A608DEF04F08FEF11
:1009180004F07AEF04F00AB094EF04F096EF04F0D4
:1009280097EF04F00D9ED8900A320AC505F5066ABD
:10093800076A086A05C508F5076A066A056A055060
:100948000B1206500C1207500D1208500E120950C7
:10095800D8B4B1EF04F0B3EF04F0BBEF04F004BE79
:10096800BAEF04F0B8EF04F0BBEF04F00E8E0BC53D
:1009780001F50CC502F50DC503F50EC504F5120009
:10098800FAC428F5FBC429F5A8AECDEF04F0CFEFE3
:1009980004F0DAEF04F0B3AED4EF04F0D6EF04F0CD
:1009A800DAEF04F0CBEC0AF044EF05F0ABA6DFEF8A
:1009B80004F0E1EF04F0ECEF04F0B6A6E6EF04F083
:1009C800E8EF04F0ECEF04F036EC09F044EF05F042
:1009D800ABAEF1EF04F0F3EF04F0FEEF04F0B6AEC7
:1009E800F8EF04F0FAEF04F0FEEF04F005EC0AF07B
:1009F80044EF05F0AFA603EF05F005EF05F010EFA3
:100A080005F0BAA60AEF05F00CEF05F010EF05F0B7
:100A180087EC07F044EF05F0AFA015EF05F017EFEE
:100A280005F022EF05F0BAA01CEF05F01EEF05F067
:100A380022EF05F008EC0BF044EF05F0AFA427EF28
:100A480005F029EF05F034EF05F0BAA42EEF05F014
:100A580030EF05F034EF05F0CFEC07F044EF05F088
:100A6800AFA239EF05F03BEF05F044EF05F0BAA26D
:100A780040EF05F042EF05F044EF05F0F4EC0AF022
:100A880029C5FBF428C5FAF4110005016235633560
:100A9800696F6951D8A453EF05F055EF05F05FEF82
:100AA80005F0000E606F000E616F000E626F000EA1
:100AB800636FCCEF05F060C564F561C565F562C587
:100AC80066F563C567F5200E6FEF05F0D8906733BC
:100AD800663365336433E82E6AEF05F06451686F56
:100AE800628FFF0E6017FF0E6117FF0E6217000E70
:100AF8006317960E695F69BF86EF05F084EF05F00E
:100B08009CEF05F06951800A970FD8B08EEF05F079
:100B180090EF05F092EF05F055EF05F0D8906333AC
:100B2800623361336033693F92EF05F0B4EF05F04B
:100B38001F0E6965A2EF05F0A4EF05F0ACEF05F014
:100B480055EF05F0D890603761376237633769072A
:100B58006951D8A4B2EF05F0B4EF05F0A6EF05F09F
:100B68006851D8B4BAEF05F0BCEF05F0C4EF05F052
:100B7800631F621F611F606D000E61236223632380
:100B880060C560F561C561F562C562F563C563F569
:100B98001200210E1CEC0AF0000E1CEC0AF07F0E6D
:100BA8001CEC0AF0220E1CEC0AF0000E1CEC0AF0F9
:100BB800070E1CEC0AF0400E05017A6F040E8E6FCA
:100BC800000E8D6F936B000E926F45EF06F09251F9
:100BD8008D5D8F6F93518E59906F905107E1110E73
:100BE8008F5DD8B0FAEF05F0FCEF05F002EF06F0E4
:100BF8008FC58BF590C58CF505EF06F08C6B100E44
:100C08008B6F8BC591F5946B28EF06F0B70E766F56
:100C1800050E776F94517627000E7723925176252B
:100C2800D96E93517721DA6E9451786F796B010EF2
:100C38007827000E79237A0E7825E16E050E792142
:100C4800E26EDFC4E7F4942B9151945DD8A02FEFA6
:100C580006F031EF06F00AEF06F0696B3C0E686F9C
:100C68007A0E6A6F050E6B6F010E91256C6F6D6BB6
:100C7800000E6D2330EC07F0050191519227000E0C
:100C880093238D51925D8E519359D8A04EEF06F063
:100C980050EF06F0EBEF05F0120059EC0AF0D0EC3B
:100CA80006F0D80E0501606F140E616F2BEC0BF087
:100CB800D40E0501606F150E616F30EC0BF01A0E43
:100CC8000501606F120E616F44EC0BF0D68ECD0EED
:100CD8000501B16F4C0EB26F280EB36F430EB46F9F
:100CE800ADC560F5AEC561F5AFC562F5B0C563F5D4
:100CF800000E646FCC0E656F4C0E666F440E676F06
:100D08000FEC00F060C5A1F561C5A2F562C5A3F5B9
:100D180063C5A4F5B1C560F5B2C561F5B3C562F5A3
:100D2800B4C563F5A10E0501646FA00E656FA00E32
:100D3800666F3C0E676F0FEC00F060C5A5F561C5E6
:100D4800A6F562C5A7F563C5A8F5A1C560F5A2C556
:100D580061F5A3C562F5A4C563F549EC05F060C566
:100D68006AF561C56BF51FEC0BF065EC0BF0B1C5CE
:100D780060F5B2C561F5B3C562F5B4C563F549EC74
:100D880005F00501605158EC0BF0030E90EC0AF0E9
:100D98006BEF06F00DEF00F0090E0501966F1E0EC1
:100DA800956FE40EE82EFED7952FFCD7962FFAD72D
:100DB8000000AE0E1CEC0AF0D50E1CEC0AF0800EFA
:100DC8001CEC0AF0A80E1CEC0AF03F0E1CEC0AF012
:100DD800D30E1CEC0AF0000E1CEC0AF0400E1CECC2
:100DE8000AF08D0E1CEC0AF0140E1CEC0AF0200E12
:100DF8001CEC0AF0000E1CEC0AF0A10E1CEC0AF028
:100E0800C80E1CEC0AF0DA0E1CEC0AF0120E1CECF0
:100E18000AF0810E1CEC0AF0CF0E1CEC0AF0D90E79
:100E28001CEC0AF0F10E1CEC0AF0DB0E1CEC0AF0CC
:100E3800400E1CEC0AF0A40E1CEC0AF0A60E1CECEA
:100E48000AF02E0E1CEC0AF0AF0E1CEC0AF0B0EC07
:100E58000AF0CDEC05F01200E80E05016F6F030EE5
:100E6800706F000E716F000E726F68C561F569C50D
:100E780062F56AC563F56BC564F56CC565F56DC546
:100E880066F5E2EC08F00009D8A44DEF07F04FEF43
:100E980007F060EF07F086EF07F0150E05016E6F9B
:100EA800C60EE82EFED76E2FFCD7000005016F078F
:100EB800000E705B715B725BEDEC09F00009D8B451
:100EC80068EF07F06AEF07F076EF07F005016F515A
:100ED800701171117211D8A474EF07F076EF07F052
:100EE80051EF07F005016F51701171117211D8A4FB
:100EF80080EF07F082EF07F084EF07F086EF07F046
:100F080025EC0BF01200020197AB8DEF07F08FEF85
:100F180007F096EF07F0030E366E979B5DEC09F02D
:100F2800CDEF07F098A79BEF07F09DEF07F0ABEF29
:100F380007F095ABA2EF07F0A4EF07F0ABEF07F0CF
:100F4800010E366E9799949D9587CDEF07F098A777
:100F5800B0EF07F0B2EF07F0C0EF07F095ABB7EFCF
:100F680007F0B9EF07F0C0EF07F0020E366E979959
:100F7800949D9587CDEF07F097ADC5EF07F0C7EFC4
:100F880007F0CCEF07F0030E366E979DCDEF07F014
:100F980097993650120002019BA5D5EF07F0D7EFBD
:100FA80007F0E2EF07F09AA5DCEF07F0DEEF07F0B5
:100FB800E2EF07F045EC0AF013EF08F09BAFE7EF1C
:100FC80007F0E9EF07F003EF08F09AAFEEEF07F04C
:100FD800F0EF07F003EF08F03550D8B4F6EF07F05C
:100FE800F8EF07F0FFEF07F0356A9A919A9F31EC16
:100FF8000AF013EF08F0949D9587DEEF07F09BA3A6
:1010080008EF08F00AEF08F013EF08F09AA30FEFC3
:1010180008F011EF08F013EF08F0949D9A9312006E
:10102800BE6AC00EBF6EC06A0401026BC00E0A6FB2
:10103800126B1B0EC66E300EC76EFA0EC86E070E08
:10104800006F300E086F1069100E016F096B116B7D
:10105800370E036FF00E0B6F13693F0E046FF00E1F
:101068000C6F14690201876B010E866F0A0E116FEF
:101078000F0E716F210E106F0E0E706F220E0F6F14
:101088000401056B100E066F076B0D6B0E6B0F6B73
:10109800156B166B176BD40E0501606F160E616F1A
:1010A80044EC0BF0A88E1200606A020E616E626A50
:1010B8006368F90E646E656A666A676A686A010E33
:1010C8006A6E6B6A7D0E6C6E6D6A7D0E6E6EB79C75
:1010D800B79E67906792AC9EAC9C000E0501606F4E
:1010E800000E616F3AEC0BF0000E0501606F000E08
:1010F800616F35EC0BF0000E0501606F000E616F3B
:101108003FEC0BF0800E696E1200040E0201946F22
:10111800800E956F080E966F010E9E6F9A6B9B6BF3
:10112800976B8C6B8D6B1F0E9D6F9F6B510E866F2F
:10113800D6EC0AF002019B919B95948F050EE82E40
:10114800FED70000000000000000000000000000C2
:1011580002019A919A959B85000E0501AB6F000ECE
:10116800AC6F1200CE0EF66E160EF76E000EF86E0D
:101178000900F5C451F50900F5C452F501EEB7F1BF
:1011880011EE00F0EE6AE550E150FCE1E250FAE1C0
:1011980001EE97F11E0EEE6AE806FDE101EE2AF176
:1011A800270EEE6AE806FDE10401080E5D6F000EE9
:1011B8005E6F000E5F6F000151EF06F00501676B6F
:1011C800EDEC09F00009D8A4ECEF08F0EEEF08F018
:1011D8000AEF09F0010E2A6E61C52BF562C52CF5E0
:1011E800356A63C52DF564C52EF565C52FF566C549
:1011F80030F5000E316E000E326E346A000E336E1A
:10120800366A9AEC09F0010E0501676F050167510E
:10121800120061EC0BF0506E000E0F6E000E106E97
:101228007A0E116E440E126E5050016E026A036AF5
:10123800046A010EEAEC03F001C513F502C514F5C2
:1012480003C515F504C516F523EC02F00FC5ADF579
:1012580010C5AEF511C5AFF512C5B0F5000E5DECC1
:101268000BF01200404A412AF40E405C010E41582E
:10127800D8A041EF09F043EF09F05BEF09F04250C5
:101288004310D8B44AEF09F04CEF09F058EF09F0D1
:1012980002D858EF09F00500FA6E4250FD6E43502F
:1012A800FE6EFF6AFA501200416A000E406EB69652
:1012B800120002019A6B979B979D979911EC0BF07E
:1012C8000201996B9985949FFEEC0AF002019B91AB
:1012D8009B95948F050EE82EFED7000000000000B5
:1012E800000000000000000002019A919A959B8579
:1012F8001200D69AB490D690000E0501606F000EC9
:10130800616F53EC0BF0B990D682000E0501606F47
:10131800000E616F4EEC0BF0BD90D684000E0501F7
:10132800606F000E616F49EC0BF012002F50301007
:10133800D8B4A1EF09F0A3EF09F0B1EF09F03050EC
:1013480002018D6F2FC58CF23550D8B4AEEF09F07D
:10135800B0EF09F0B1EF09F0948D2B502B24020166
:101368008F6F948B120060C566F561C567F5C5EF90
:1013780009F066C5D9F467C5DAF462C5DFF4664BCF
:10138800672B05016407D8A06507642906E165296C
:10139800D8A4D1EF09F0D3EF09F0BDEF09F012009E
:1013A8000501B551B611D8B4DCEF09F0DEEF09F04C
:1013B800EAEF09F002D8EAEF09F00500FA6EB55134
:1013C800FD6EB651FE6EFF6AFA50120004010799CD
:1013D8001200010E0501606F2A50D8A4F6EF09F03B
:1013E800F8EF09F002EF0AF0020198AFFEEF09F0FA
:1013F80000EF0AF002EF0AF00501606B0501605189
:1014080012003E503F10D8B40CEF0AF00EEF0AF06D
:101418001AEF0AF002D81AEF0AF00500FA6E3E50E9
:10142800FD6E3F50FE6EFF6AFA501200B69E120023
:101438000501736F0501756B000E746F73C575F543
:10144800696B3C0E686F740E6A6F050E6B6F6D6B7F
:10145800020E6C6F30EC07F0120033503410D8B421
:1014680038EF0AF03AEF0AF03FEF0AF03450020181
:101478008D6F33C58CF2D8802B3402018F6F948B1B
:1014880012002A6A000E2C6E2B68000E2D6E000EBC
:101498002E6E000E316E000E326E02019A6B979B13
:1014A800979D9799996B99851200E0EC0AF014ECD6
:1014B80008F089EC08F0A1EC0AF07FEC0AF019ECCE
:1014C8000BF0BFEC0AF058EC08F07DEC09F01200C4
:1014D800BEBA71EF0AF074EF0AF0010E75EF0AF068
:1014E800000EFF0A016E013A0146BE500118DF0BDB
:1014F8000118BE6E1200010E0301206F1F6B216BD5
:101508007C0E1D6F1C6BD00E426E160E436EB69687
:10151800AB86F00E1E6F12000501616F0001A487F3
:1015280061C560F50501603B0001A4510501601922
:101538008F0B60190001A46F1200F30E0301196FDD
:10154800186B5E0E1B6FD20E3E6E160E3F6EB69E69
:10155800AB8E800E1A6F1200B70E0501606F050E74
:10156800616F636B000E626F040E656F000E646F2F
:10157800B7EC09F012003F0E0001A46F120EA56F20
:10158800800EA66FA76BA96B800EA36F12000401D3
:1015980007A9D1EF0AF0D3EF0AF0D5EF0AF0D4EC9F
:1015A80009F01200AF84AF86AF80AF8202019B853D
:1015B8009B839B8F97811200600E0001AD6FAF6B0C
:1015C800B36B080EB16FB06BAC6B1200000E050167
:1015D800AD6F000EAE6F000EAF6F000EB06F120051
:1015E8002DC5D9F42EC5DAF4DF5002018B6F2D4AD0
:1015F8002E2A1200AF84AF86AF80AF8202019B858E
:101608009B839B8F9781120031C5D9F432C5DAF4D8
:101618008AC2DFF4314A322A1200AF94AF96AF90F3
:10162800AF9202019B6B976B1200A00E00017F6FB7
:10163800A90E7D6F12006AC56BF405016B516C6EC3
:10164800120036C560F5366A05016051120060C5A2
:1016580042F561C543F5120060C53EF561C53FF529
:10166800120060C54CF561C54DF5120060C54EF518
:1016780061C54FF5120060C54AF561C54BF512000A
:1016880060C5B5F561C5B6F5120060C544F561C51C
:1016980045F5120060C546F561C547F5120060C5FD
:1016A80048F561C549F5120005016A6F6AC57DF004
:1016B8001200016E01C518F3120018C301F501509C
:0E16C80012006984120040001200120012008D
:10F7B000000810205F0000000000000000000000B2
:10F7C0000000000000000000F80000000000000041
:10F7D000333000000000100C06100C060000000082
:10F7E000000000000040C07840C0784000043F04A2
:10F7F000043F040400007088FC083000000018205A
:10F80000FF211E0000F008F000E018000000211C9D
:10F81000031E211E0000F00888700000001E212336
:10F82000241927211010160E00000000000000000F
:10F830000000000000000000E018040200000000CA
:10F84000071820400000020418E0000000004020DB
:10F850001807000000404080F08040400002020194
:10F860000F01020200000000F00000000001010191
:10F870001F01010100000000000000000080B070C6
:10F880000000000000000000000000000000010176
:10F890000101010101000000000000000000303003
:10F8A00000000000000000000080601804006018E4
:10F8B000060100000000E010080810E000000F1032
:10F8C0002020100F00001010F80000000000202081
:10F8D0003F202000000070080808887000003028D1
:10F8E0002422213000003008888848300000182089
:10F8F0002020110E000000C02010F80000000704B6
:10F9000024243F240000F8088888080800001921F2
:10F910002020110E0000E0108888180000000F1150
:10F920002020110E0000380808C838080000000028
:10F930003F000000000070880808887000001C224A
:10F940002121221C0000E010080810E00000003116
:10F950002222110F00000000C0C0000000000000C3
:10F960003030000000000000800000000000008037
:10F97000600000000000008040201008000001022C
:10F98000040810200040404040404040000404046F
:10F99000040404040000081020408000000020102F
:10F9A0000804020100007048080808F00000000088
:10F9B0003036010000C030C828E810E000071827E2
:10F9C0002423140B000000C038E0000000203C237A
:10F9D000020227382008F8888888700000203F201D
:10F9E0002020110E00C03008080808380007182031
:10F9F000202010080008F808080810E000203F2028
:10FA00002020100F0008F88888E8081000203F2008
:10FA1000202320180008F88888E8081000203F20DC
:10FA20000003000000C03008080838000007182054
:10FA300020221E020008F808000008F808203F21D4
:10FA40000101213F20000808F808080000002020DC
:10FA50003F2020000000000808F8080800C080804F
:10FA6000807F00000008F888C028180800203F2088
:10FA7000012638200008F8080000000000203F2080
:10FA8000202020300008F8F800F8F80800203F0097
:10FA90003F003F200008F830C00008F808203F2051
:10FAA0000007183F00E01008080810E0000F1020C1
:10FAB0002020100F0008F808080808F000203F2157
:10FAC0000101010000E01008080810E0000F1824F0
:10FAD0002438504F0008F8888888887000203F201C
:10FAE00000030C3020007088080808380000382017
:10FAF0002121221C00180808F8080818000000201E
:10FB00003F2000000008F808000008F808001F2047
:10FB10002020201F000878880000C838080000074F
:10FB2000380E010000F80800F80008F800033C0750
:10FB300000073C0300081868808068180820302CF3
:10FB400003032C30200838C800C838080000002003
:10FB50003F2000000010080808C838080020382698
:10FB60002120201800000000FE0202020000000018
:10FB70007F40404000000C30C0000000000000004A
:10FB8000010638C00000020202FE000000004040F2
:10FB9000407F000000000004020202040000000098
:10FBA00000000000000000000000000000808080D5
:10FBB00080808080800002020400000000000000BD
:10FBC00000000000000000808080800000001924F8
:10FBD0002222223F2008F8008080000000003F1110
:10FBE0002020110E000000008080800000000E1117
:10FBF0002020201100000000808088F800000E11F5
:10FC00002020103F200000808080800000001F2204
:10FC10002222221300008080F0888888180020208B
:10FC20003F202000000000808080808000006B94D6
:10FC3000949493600008F8008080800000203F21A9
:10FC40000000203F20008098980000000000202045
:10FC50003F20200000000000809898000000C08035
:10FC600080807F000008F8000080808000203F2412
:10FC7000022D302000000808F800000000002020BD
:10FC80003F202000008080808080808000203F20F6
:10FC9000003F20003F8080008080800000203F21C6
:10FCA0000000203F200000808080800000001F2096
:10FCB0002020201F00808000808000000080FFA1A5
:10FCC0002020110E000000008080808000000E11B6
:10FCD0002020A0FF80808080008080800020203F46
:10FCE00021200001000000808080808000003324FB
:10FCF0002424241900008080E0808000000000009F
:10FD00001F202000008080000000808000001F2055
:10FD10002020103F20808080000080808000010E25
:10FD2000300806010080800080008080800F300C49
:10FD3000030C300F000080800080808000002031A4
:10FD40002E0E312000808080000080808080818E97
:10FD500070180601000080808080808000002130C3
:10FD60002C2221300000000000807C0202000000F4
:10FD700000003F404000000000FF000000000000C5
:10FD800000FF0000000002027C80000000004040F4
:10FD90003F00000000000601010202040400000010
:10FDA00000000000000608205F00000000000000C6
:10FDB00000002F000000000700070000147F147FE0
:10FDC0001400242A7F2A1200231308646200364993
:10FDD00055225000000503000000001C22410000D5
:10FDE0000041221C000014083E08140008083E08C8
:10FDF00008000000A0600000080808080800006073
:10FE0000600000002010080402003E5149453E00F9
:10FE100000427F4000004261514946002141454B6C
:10FE200031001814127F10002745454539003C4A1F
:10FE30004949300001710905030036494949360036
:10FE4000064949291E0000363600000000563600DB
:10FE5000000008142241000014141414140000417E
:10FE600022140800020151090600324959513E008E
:10FE70007C1211127C007F49494936003E414141C4
:10FE800022007F4141221C007F49494941007F09EE
:10FE9000090901003E4149497A007F0808087F00AE
:10FEA00000417F4100002040413F01007F081422B3
:10FEB00041007F40404040007F020C027F007F04F1
:10FEC00008107F003E4141413E007F0909090600BC
:10FED0003E4151215E007F091929460046494949A2
:10FEE000310001017F0101003F4040403F001F20E1
:10FEF00040201F003F4038403F0063140814630057
:10FF0000070870080700615149454300007F4141DF
:10FF10000000552A552A55000041417F0000040287
:10FF20000102040040404040400000010204000083
:10FF30002054545478007F484444380038444444A2
:10FF40002000384444487F00385454541800087E38
:10FF50000901020018A4A4A47C007F08040478000E
:10FF600000447D4000004080847D00007F102844D4
:10FF7000000000417F4000007C04180478007C08E9
:10FF800004047800384444443800FC242424180035
:10FF900018242418FC007C08040408004854545415
:10FFA0002000043F444020003C4040207C001C20B6
:10FFB00040201C003C4030403C00442810284400B5
:10FFC0001CA0A0A07C004464544C440000087700AE
:10FFD000000000007F00000000770800000010080B
:10FFE0001008001414141414140012110000C41189
:0FFFF0000000000000004A16DA130000000000B5
:020000040030CA
:090000008CFFF7FF9FFFFFFFFFDB
:00000001FF
