:040000000DEF00F010
:04000800BBEF09F051
:10001800FF0000EF13F00501EA6B000EE96FEC6BCF
:10002800000EEB6FDD6B000EDC6F73C5CAF5070EB3
:10003800CA17D8A422EF00F024EF00F0C4EF01F0B3
:1000480073C5B9F5BA6BBC6B080EBB6FBBEC10F08F
:1000580005017251CA6FCB6BB951CA03F3C4CCF511
:10006800F4C4CDF5CB03F350CD27BA51CA03F350EE
:10007800CD277451C9C5CEF5CF6BCE5F000ECF5BCF
:10008800CC51CE03F3C4D0F5F4C4D1F5CF03F3506B
:10009800D127CD51CE03F350D127040ED025E36FDD
:1000A800000ED121E46F070EC715CA6F000EC815E0
:1000B800CB6FCA51CB11D8A464EF00F066EF00F003
:1000C800FFEF00F073C5B9F5BA6BBC6B080EBB6FD8
:1000D800BBEC10F0B9C5D2F5BAC5D3F50501EC6B88
:1000E800000EEB6FEFEF00F0EA6B000EE96FE2EF46
:1000F80000F07251E903F3C4CAF5F4C4CBF5EA037E
:10010800F350CB27CA517025CC6FCB517121CD6FDD
:10011800E351CC27E451CD23EB51CC27EC51CD232F
:10012800CCC5F6F4CDC5F7F4F86A0800F550DC6FD5
:10013800DD6BC7C5CAF5C8C5CBF5CB35CB33CA33DC
:10014800CB35CB33CA33CB35CB33CA33E951CA2588
:10015800D46FEA51CB21D56FD4C5CAF5D5C5CBF537
:10016800070ED890CA37CB37E82EB5EF00F0C55147
:10017800CA27C651CB23EB51CA25D86FEC51CB21E6
:10018800D96F7651D8B4CBEF00F0CDEF00F0D8EFAF
:1001980000F03C0ED825D96E060ED921DA6EDC5156
:1001A800FF0ADF6EE0EF00F03C0ED825D96E060E90
:1001B800D921DA6EDCC5DFF4E94BEA2BD251E95DCF
:1001C800D351EA59D8A0EBEF00F0EDEF00F07DEF46
:1001D80000F0EB4BEC2B7251CA6FCB6BCA51EB5D45
:1001E800CB51EC59D8A0FBEF00F0FDEF00F078EF11
:1001F80000F0A0EF02F0EA6B000EE96FAEEF01F03D
:10020800EC6B000EEB6F9EEF01F07251E903F3C443
:10021800CAF5F4C4CBF5EA03F350CB27CA517025CD
:10022800CC6FCB517121CD6FE351CC27E451CD2355
:10023800EB51CC27EC51CD23CCC5F6F4CDC5F7F462
:10024800F86A0800F550DC6FDD6BE26BC551EB25F1
:10025800DE6FC651EC21DF6FE251E9C5CAF5EAC588
:10026800CBF5D890CA37CB37D890CA37CB37D89088
:10027800CA37CB37CA27000ECB23C751CA25E06F30
:10028800C851CB21E16FE2C5CAF5010ECB6F000E54
:10029800CC6FCA2B53EF01F0D890CB37CC37CA2F8D
:1002A80050EF01F00501DC51CB17DD51CC17CB51D4
:1002B800CC11D8B462EF01F064EF01F088EF01F0DF
:1002C8007651D8A46AEF01F06CEF01F07AEF01F0F3
:1002D800DEC5B9F5DFC5BAF5E0C5BBF5E1C5BCF5C6
:1002E800010EBD6FBEEC0EF092EF01F0DEC5B9F560
:1002F800DFC5BAF5E0C5BBF5E1C5BCF5000EBD6FBD
:10030800BEEC0EF092EF01F07651D8A48EEF01F01A
:1003180090EF01F06CEF01F07AEF01F00501E22BAC
:10032800070EE2659AEF01F09CEF01F02AEF01F069
:10033800EB4BEC2B7251CA6FCB6BCA51EB5DCB51B7
:10034800EC59D8A0AAEF01F0ACEF01F009EF01F0E9
:10035800E94BEA2B73C5B9F5BA6BBC6B080EBB6FDA
:10036800BBEC10F00501B951E95DBA51EA59D8A0C2
:10037800C0EF01F0C2EF01F004EF01F0A0EF02F0CE
:1003880072517303F3C4B9F5F4C4BAF5BC6B080E23
:10039800BB6FBBEC10F005017451C9C5CAF5CB6B36
:1003A800CA5F000ECB5BB951CA03F3C4CCF5F4C4E1
:1003B800CDF5CB03F350CD27BA51CA03F350CD275F
:1003C800040ECC25E36F000ECD21E46FE3517025B8
:1003D800CA6FE4517121CB6FCAC5F6F4CBC5F7F4E7
:1003E800F86A0800F550D66FD76BDB6B070EDA6F2B
:1003F800E66B000EE56F8EEF02F0E86B000EE76F1C
:100408007AEF02F0DAC5CAF5010ECB6F000ECC6F99
:10041800CA2B12EF02F0D890CB37CC37CA2F0FEF88
:1004280002F00501D651CB17D751CC17CB51CC11BF
:10043800D8B421EF02F023EF02F04FEF02F076512B
:10044800D8A429EF02F02BEF02F03DEF02F0E551BE
:10045800C525B96FE651C621BA6FE751C725BB6FED
:10046800E851C821BC6F010EBD6FBEEC0EF059EF0C
:1004780002F0E551C525B96FE651C621BA6FE751BB
:10048800C725BB6FE851C821BC6F000EBD6FBEEC1D
:100498000EF059EF02F07651D8A455EF02F057EF5D
:1004A80002F02BEF02F03DEF02F00501DA07D8A0C9
:1004B800DB07DBBF64EF02F062EF02F078EF02F0D7
:1004C800DB6B070EDA6FE34BE42BE3517025CA6F41
:1004D800E4517121CB6FCAC5F6F4CBC5F7F4F86ABD
:1004E8000800F550D66FD76BE74BE82B7351CA6FEE
:1004F800CB6BCA51E75DE851800ACC6FCB51800ABB
:10050800CC59D8A08AEF02F08CEF02F006EF02F087
:10051800E54BE62B7251CA6FCB6BCA51E55DE651CC
:10052800800ACC6FCB51800ACC59D8A09EEF02F03C
:10053800A0EF02F001EF02F012000501CA51800B92
:10054800D36FCA51CA25D96FC9AFADEF02F0AFEF6B
:1005580002F0B0EF02F0D981D951D8B4B6EF02F069
:10056800B8EF02F0CBEF02F0D929D8A4BEEF02F021
:10057800C0EF02F0C8EF02F0000EC76F000EC86FA0
:10058800000EC96F000ECA6FC98FD3EF02F0000EBC
:10059800C76F000EC86F000EC96F000ECA6FCE512C
:1005A800800BD31BCE51CE25D86FCDAFDEEF02F036
:1005B800E0EF02F0E1EF02F0D881D851D8B4E7EFCC
:1005C80002F0E9EF02F0FCEF02F0D829D8A4EFEF2F
:1005D80002F0F1EF02F0F9EF02F0000ECB6F000E1F
:1005E800CC6F000ECD6F000ECE6FCD8F04EF03F0F1
:1005F800000ECB6F000ECC6F000ECD6F000ECE6FCD
:10060800D851D8B40AEF03F00CEF03F014EF03F05D
:10061800D951D8A412EF03F014EF03F01EEF03F042
:10062800000EC76F000EC86F000EC96F000ECA6FAC
:10063800B4EF04F0CD51C703F3C4DEF5F4C4DFF51D
:10064800DE51D46FD56BD66BD76BDF51DA6FDB6BAE
:10065800DC6BDD6BCC51C803F3C4DEF5F4C4DFF505
:10066800DE51D427000ED523D623D723DF51DA272E
:10067800000EDB23DC23DD23CB51C903F3C4DEF5F5
:10068800F4C4DFF5DE51D427000ED523D623D723B3
:10069800DF51DA27000EDB23DC23DD23D6C5D7F5AF
:1006A800D5C5D6F5D4C5D5F5D46BCB51C803F3C49D
:1006B800DEF5F4C4DFF5DE51D427DF51D523000E73
:1006C800D623000ED723CC51C703F3C4DEF5F4C4F8
:1006D800DFF5DE51D427DF51D523000ED623000ED7
:1006E800D723D6C5D7F5D5C5D6F5D4C5D5F5D46B9A
:1006F800CB51C703F3C4DEF5F4C4DFF5DE51D427CC
:10070800DF51D523000ED623000ED723CD51C803C1
:10071800F3C4DEF5F4C4DFF5DE51DA27DF51DB235D
:10072800000EDC23000EDD23CC51C903F3C4DEF533
:10073800F4C4DFF5DE51DA27DF51DB23000EDC23BA
:10074800000EDD23CD51C903F3C4DEF5F4C4DFF593
:10075800DE51CF6FDF51D06FD16BD26BD1C5D2F5DF
:10076800D0C5D1F5CFC5D0F5CF6BCF51DA27D05151
:10077800DB23D151DC23D251DD23D4C5CFF5D5C538
:10078800D0F5D6C5D1F5D7C5D2F5190ED1EF03F0FE
:10079800D890D233D133D033CF33E82ECCEF03F017
:1007A800CF51DA27D051DB23D151DC23D251DD23BD
:1007B800D6C5D7F5D5C5D6F5D4C5D5F5D46BD8519A
:1007C800D9C5CFF5D06BCF27000ED023820ECF2509
:1007D800DE6FFF0ED021DF6F07EF04F0D890DA3715
:1007E800DB37DC37DD37D7AFFCEF03F0FEEF03F084
:1007F800FFEF03F0DA81D890D437D537D637D7371B
:10080800DE07D8A0DF07DCAF0CEF04F00EEF04F032
:10081800F2EF03F0D86BD7AF14EF04F016EF04F043
:100828003AEF04F0FF0ED415CF6FFF0ED515D06F39
:10083800FF0ED615D16F7F0ED715D26FCF51D011BD
:10084800D111D211D8B42BEF04F02DEF04F031EF11
:1008580004F0010ED86F3AEF04F0DAA136EF04F095
:1008680038EF04F03AEF04F02DEF04F0D851D8B483
:1008780040EF04F042EF04F066EF04F0010EDA27CF
:10088800000EDB23DC23DD23DDA14DEF04F04FEF69
:1008980004F066EF04F0DAC5CFF5DBC5D0F5DCC5AA
:1008A800D1F5DDC5D2F5D235D233D133D033CF33FC
:1008B800CFC5DAF5D0C5DBF5D1C5DCF5D2C5DDF598
:1008C800DE4BDF2BDFBF71EF04F0DF5108E1DE29DB
:1008D800D8A071EF04F073EF04F07DEF04F0000E80
:1008E800DA6F000EDB6F800EDC6F7F0EDD6FAAEF14
:1008F80004F0DFBF8AEF04F0DF5106E1DE05D8B06F
:1009080088EF04F08AEF04F095EF04F0000EDA6F38
:10091800000EDB6F000EDC6F000EDD6FD36BAAEFED
:1009280004F0DEC5D9F5FF0EDA17FF0EDB177F0ED0
:10093800DC17000EDD17D9A1A4EF04F0A6EF04F030
:10094800A7EF04F0DC8FD890D931DD6FD351DD13D8
:10095800DAC5C7F5DBC5C8F5DCC5C9F5DDC5CAF517
:10096800120000000000000000000000000000006D
:10097800000000000000000000000000000000006F
:10098800000000000000000000000000000000005F
:10099800000000000000000000000000000000004F
:1009A800000000000000000000000000000000003F
:1009B800000000000000000000000000000000002F
:1009C800000000000000000000000000000000001F
:1009D800000000000000000000000000000000000F
:1009E800000000000000000000000000FCFCFC0CFF
:1009F8000C0C0C0C0C0000C0C0C080C0C0C0C08073
:100A08000080C0C0C0C08000000000FEFEFE80C0A4
:100A1800C0C0C0C080000000008080C0C0C0C0C08E
:100A280080000000008080C0C0C0C080FEFEFE00C4
:100A380000008080C0C0C0C080FEFEFE00000080B4
:100A480080C0C0C0C0C080000000008080C0C0C09E
:100A5800C080FEFEFE000000000000000000000054
:100A68000000000000000000000000FFFFFF83837B
:100A7800838383800000FFFFFF01000001FFFFFF69
:100A880001000001FFFFFF000000FFFFFFC18080A1
:100A980080C1FFFF3E00003EFFFFCD8C8C8C8FCFC6
:100AA800CF00003EFFFFC1808080C1FFFFFF000034
:100AB8003EFFFFC1808080C1FFFFFF00003EFFFFB7
:100AC800CD8C8C8C8FCFCF00003EFFFFC180808003
:100AD800C1FFFFFF00000000000000000000000050
:100AE80000000000000000000000010101010101F8
:100AF80001010000000101010100010101000001E4
:100B080001010001010101000000000000000001D6
:100B180001010101000000000001010100000000C6
:100B280000000000010101010001010100000000B6
:100B380001010101010000000001010101010000A3
:100B480000000001010100000000000000181D1F46
:100B58000F0300000000000000000000000000007B
:100B6800000000000000000000000000000000007D
:100B7800000000000000000000000000000000006D
:100B8800000000000000000000000000000000005D
:100B9800000000000000000000000000000000004D
:100BA800000000000000000000000000000000003D
:100BB800000000000000000000000000000000002D
:100BC800000000000000000000000000000000001D
:100BD800000000000000000000000000000000000D
:100BE80000000000000000000000000000000000FD
:100BF80000000000000000000000000000000000ED
:100C080000000000000000000000000000000000DC
:100C180000000000000000000000000000000000CC
:100C280000000000000000000000000000000000BC
:100C380000000000000000000000000000000000AC
:100C4800000000000000000000000000000000009C
:100C5800000000000000000000000000000000008C
:100C6800000000000000000000000000000000007C
:100C7800000000000000000000000000000000006C
:100C8800000000000000000000000000000000005C
:100C9800000000000000000000000000000000004C
:100CA800000000000000000000000000000000003C
:100CB800000000000000000000000000000000002C
:100CC800000000000000000000000000000000001C
:100CD800000000000000000000000000000000000C
:100CE80000000000000000000000000000000000FC
:100CF80000000000000000000000000000000000EC
:100D080000000000000000000000000000000000DB
:100D180000000000000000000000000000000000CB
:100D280000000000000000000000000000000000BB
:100D380000000000000000000000000000000000AB
:100D4800000000000000000000000000000000009B
:100D5800000000000000000000000000000000008B
:100D680000001250800B1F6E12501224266E11AE16
:100D7800C0EF06F0C2EF06F0C3EF06F0268026505B
:100D8800D8B4C9EF06F0CBEF06F0DFEF06F026285F
:100D9800D8A4D1EF06F0D3EF06F0DBEF06F0000E93
:100DA8000F6E000E106E000E116E000E126E118E78
:100DB800126AE7EF06F0000E0F6E000E106E000EBE
:100DC800116E000E126E1650800B1F1A1650162444
:100DD800276E15AEF2EF06F0F4EF06F0F5EF06F029
:100DE80027802750D8B4FBEF06F0FDEF06F011EF8F
:100DF80007F02728D8A403EF07F005EF07F00DEF59
:100E080007F0000E136E000E146E000E156E000E25
:100E1800166E158E166A19EF07F0000E136E000E87
:100E2800146E000E156E000E166E13501410151069
:100E38001610D8A422EF07F024EF07F03CEF07F0D4
:100E4800000E0F6E000E106E000E116E000E126E68
:100E5800800E11127F0E12121F5012120FC50FF5BD
:100E680010C510F511C511F512C512F57BEF08F084
:100E78002650D8A442EF07F044EF07F04EEF07F0F2
:100E8800000E0F6E000E106E000E116E000E126E28
:100E98007BEF08F0275026C517F5186A175E000E75
:100EA800185A7F0E1724206E000E1820216E0FC5C9
:100EB8001BF510C51CF511C51DF512C51EF5000E54
:100EC8000F6E000E106E000E116E000E126E000EE8
:100ED800226E000E236E000E246E000E256E276A09
:100EE800AEEF07F02750D8B47CEF07F07EEF07F09D
:100EF80095EF07F0D8901B361C361D361E36D89055
:100F08000F3610361136123625AE8DEF07F08FEFFB
:100F180007F090EF07F00F80D8902236233624365A
:100F2800253613501B5C14501C5815501D5816506C
:100F38001E58D8A0A2EF07F0A4EF07F0ADEF07F016
:100F4800258C13501B5E14501C5A15501D5A1650F0
:100F58001E5A272A190E2764B4EF07F0B6EF07F0D8
:100F680076EF07F01B501C101D101E10D8B4BFEFF1
:100F780007F0C1EF07F0D9EF07F02280D9EF07F0AB
:100F8800D8900F3610361136123625AECEEF07F050
:100F9800D0EF07F0D1EF07F00F80D8902236233634
:100FA800243625362006D8A0210611AEDEEF07F03C
:100FB800E0EF07F0C4EF07F0276A25AEE6EF07F089
:100FC800E8EF07F00CEF08F0FF0E2214176EFF0E83
:100FD8002314186EFF0E2414196E7F0E25141A6E32
:100FE8001750181019101A10D8B4FDEF07F0FFEFBA
:100FF80007F003EF08F0010E276E0CEF08F00FA0C2
:1010080008EF08F00AEF08F00CEF08F0FFEF07F020
:101018002750D8B412EF08F014EF08F038EF08F0B2
:10102800010E0F26000E10221122122212A01FEF0D
:1010380008F021EF08F038EF08F00FC517F510C5D4
:1010480018F511C519F512C51AF51A341A321932DC
:101058001832173217C50FF518C510F519C511F54F
:101068001AC512F5204A212A21BE43EF08F0215063
:1010780008E12028D8A043EF08F045EF08F050EF2A
:1010880008F0000E216E2068000E0F6E000E106E24
:10109800000E116E000E126E21BE5DEF08F0215099
:1010A80006E12004D8B05BEF08F05DEF08F069EFC7
:1010B80008F0216A000E206E000E0F6E000E106EF2
:1010C800000E116E000E126E1F6A20C526F526A0AE
:1010D80070EF08F072EF08F075EF08F0118E76EFF8
:1010E80008F0119ED8902630126E30EF07F01200EB
:1010F8001DEC16F0AC0E0501B96F2F0EBA6F27EC78
:1011080018F0000E0501B96F2C0EBA6F22EC18F01A
:10111800000E0501B96F310EBA6F1DEC18F0240EE0
:101128000501B96F290EBA6F4AEC18F0420E050195
:10113800B96F2F0EBA6F4FEC18F0D68E1CEC11F069
:10114800AF0E0501B96FFD0EBA6F43EC13F0050140
:10115800EE6B0A0EED6FF06B320EEF6FF40EF16F5F
:10116800FF0EF26F83EC0DF0D2EC0FF00C0EE3ECF7
:1011780015F0B9C557F5BAC558F5150EE3EC15F0D5
:10118800B9C5B7F5BAC5B8F5B1C5C7F5B2C5C8F59B
:10119800B3C5C9F5B4C5CAF5000E0501CB6FCC0EB1
:1011A800CC6F4C0ECD6F440ECE6FA1EC02F0C7C5CC
:1011B8007FF5C8C580F5C9C581F5CAC582F5B7C52B
:1011C800B9F5B8C5BAF50501BB6BBC6B000ECDEC23
:1011D8000BF0B9C5C7F5BAC5C8F5BBC5C9F5BCC5D7
:1011E800CAF5800E0501CB6F070ECC6F800ECD6F50
:1011F800410ECE6FA1EC02F0C7C57BF5C8C57CF5E2
:10120800C9C57DF5CAC57EF57FC5B9F580C5BAF5EE
:1012180081C5BBF582C5BCF54EEC0FF0B9C5C3F569
:10122800BAC5C4F511EC18F075EC18F07BC5B9F522
:101238007CC5BAF57DC5BBF57EC5BCF54EEC0FF097
:10124800B9C5C3F5BAC5C4F50BEC18F073EC18F0C2
:101258005A50D8B432EF09F034EF09F05FEF09F0D3
:1012680057C5B5F558C5B6F557C5B9F558C5BAF552
:101278000501BB6BBC6B000ECDEC0BF0B9C5C7F517
:10128800BAC5C8F5BBC5C9F5BCC5CAF5F10E050197
:10129800CB6F0F0ECC6F7F0ECD6F3D0ECE6FA1ECD6
:1012A80002F0C7C577F5C8C578F5C9C579F5CAC5C7
:1012B8007AF584EF09F0B5C5B9F5B6C5BAF50501F3
:1012C800BB6BBC6B000ECDEC0BF0B9C5C7F5BAC54E
:1012D800C8F5BBC5C9F5BCC5CAF5F10E0501CB6F8C
:1012E8000F0ECC6F7F0ECD6F3D0ECE6FA1EC02F0CE
:1012F800C7C577F5C8C578F5C9C579F5CAC57AF5FA
:1013080077C5B9F578C5BAF579C5BBF57AC5BCF521
:101318004EEC0FF00501B95163EC18F057C5B9F55B
:1013280058C5BAF50501BB6BBC6B000ECDEC0BF0D4
:10133800B9C5C7F5BAC5C8F5BBC5C9F5BCC5CAF5B1
:10134800010E0501CB6F0A0ECC6FA00ECD6F3A0EC1
:10135800CE6FA1EC02F0C7C583F5C8C584F5C9C531
:1013680085F5CAC586F5BAEF08F00DEF00F0FAC4A6
:1013780028F5FBC429F5F6C42AF5F7C42BF5F8C4FB
:101388002CF5F5C42DF5A8AECCEF09F0CEEF09F099
:10139800D9EF09F0B3AED3EF09F0D5EF09F0D9EFE3
:1013A80009F0E2EC16F0D0EF0AF0ABA6DEEF09F098
:1013B800E0EF09F0EBEF09F0B6A6E5EF09F0E7EF8B
:1013C80009F0EBEF09F09DEC16F0D0EF0AF0ABAEA8
:1013D800F0EF09F0F2EF09F0FDEF09F0B6AEF7EF24
:1013E80009F0F9EF09F0FDEF09F0B5EC16F0D0EFD0
:1013F8000AF0AFA602EF0AF004EF0AF00FEF0AF0C6
:10140800BAA609EF0AF00BEF0AF00FEF0AF073EC37
:1014180012F0D0EF0AF0AFA014EF0AF016EF0AF0BE
:1014280021EF0AF0BAA01BEF0AF01DEF0AF021EF36
:101438000AF0F4EC17F0D0EF0AF0AFA426EF0AF0A8
:1014480028EF0AF033EF0AF0BAA42DEF0AF02FEFD5
:101458000AF033EF0AF0BBEC12F0D0EF0AF0AFA2BB
:1014680038EF0AF03AEF0AF045EF0AF0BAA23FEF78
:101478000AF041EF0AF045EF0AF0E0EC17F0D0EF80
:101488000AF0ABA84AEF0AF04CEF0AF057EF0AF05F
:10149800B6A851EF0AF053EF0AF057EF0AF0DDEC67
:1014A80013F0D0EF0AF0A9A45CEF0AF05EEF0AF09F
:1014B80069EF0AF0B4A463EF0AF065EF0AF069EF88
:1014C8000AF079EC18F0D0EF0AF0AAA06EEF0AF053
:1014D80070EF0AF07BEF0AF0B5A075EF0AF077EF2E
:1014E8000AF07BEF0AF077EC18F0D0EF0AF0ACA620
:1014F80080EF0AF082EF0AF098EF0AF0B7A687EFBC
:101508000AF089EF0AF098EF0AF002D896EF0AF08D
:101518000500FA6E0501A551FD6EA651FE6EFF6A23
:10152800FA501200D0EF0AF0ACA29DEF0AF09FEF3C
:101538000AF0B5EF0AF0B7A2A4EF0AF0A6EF0AF096
:10154800B5EF0AF002D8B3EF0AF00500FA6E05010C
:10155800A951FD6EAA51FE6EFF6AFA501200D0EF33
:101568000AF0ACA0BAEF0AF0BCEF0AF0D0EF0AF02C
:10157800B7A0C1EF0AF0C3EF0AF0D0EF0AF002D823
:10158800D0EF0AF00500FA6E0501A751FD6EA851CB
:10159800FE6EFF6AFA5012002DC5F5F42CC5F8F45A
:1015A8002BC5F7F42AC5F6F429C5FBF428C5FAF4C7
:1015B80011000FC5D9F410C5DAF4DEC4F6F4DDC4A1
:1015C800F7F4F86A0800F550250AD8A4EEEF0AF0F7
:1015D800F0EF0AF0B7EF0BF00FC5D9F410C5DAF445
:1015E800DE2A000EDD220501886B000E876F87C595
:1015F8004FF589698A69156A0FC5D9F410C5DAF4F7
:10160800DEC4F6F4DDC4F7F4F86A0800F550730A8E
:10161800D8A411EF0BF013EF0BF01EEF0BF00FC572
:10162800D9F410C5DAF4DE2A000EDD22010E156E9B
:1016380071EF0BF00FC5D9F410C5DAF4DEC4F6F477
:10164800DDC4F7F4F86A0800F5506C0AD8A42FEF47
:101658000BF031EF0BF071EF0BF00FC5D9F410C59B
:10166800DAF4DEC413F5DDC414F5010E1326000EFA
:10167800142213C5F6F414C5F7F4F86A0800F550F7
:101688006C0AD8A44AEF0BF04CEF0BF071EF0BF09B
:101698000FC5D9F410C5DAF4DEC413F5DDC414F5AA
:1016A800020E1326000E142213C5F6F414C5F7F41F
:1016B800F86A0800F550730AD8A465EF0BF067EFD5
:1016C8000BF071EF0BF0030E0FC5D9F410C5DAF467
:1016D800DE26000EDD221AEF0BF01550D8B477EF96
:1016E8000BF079EF0BF0AEEF0BF011C5D9F412C582
:1016F800DAF4DFC413F5020EDE26DFC414F5000E9B
:10170800DD2213C5D9F414C5DAF4DEC416F5DDC438
:1017180017F5A0EF0BF016C5D9F417C5DAF4DF50AA
:10172800136E1350046E056A0DC506F50EC507F550
:1017380056EC10F0164A172A16C5D9F417C5DAF46C
:10174800DF50D8A4AAEF0BF0ACEF0BF08FEF0BF043
:10175800CCEF0BF00FC5D9F410C5DAF4DE2A000E71
:10176800DD22CCEF0BF00FC5D9F410C5DAF4DEC4D6
:10177800F6F4DDC4F7F4F86A0800F550046E056A5B
:101788000DC506F50EC507F556EC10F0AEEF0BF0DB
:1017980012000501C16F0501C151D8B4D6EF0BF095
:1017A800D8EF0BF0FAEF0BF0BCBFDFEF0BF0DDEF7B
:1017B8000BF0FAEF0BF0B9C5BDF5BAC5BEF5BBC560
:1017C800BFF5BCC5C0F5BD1FBE1FBF1FC01FBD2BC9
:1017D800000EBE23BF23C023BDC5C3F5BEC5C4F5D7
:1017E800BFC5C5F5C0C5C6F502EF0CF0B9C5C3F550
:1017F800BAC5C4F5BBC5C5F5BCC5C6F5B951BA115E
:10180800BB11BC11D8A40BEF0CF00DEF0CF017EFC7
:101818000CF0000EB96F000EBA6F000EBB6F000E11
:10182800BC6FA8EF0CF0960EC26F21EF0CF0C22B24
:10183800D890C633C533C433C333000EC315BD6F48
:10184800000EC415BE6F000EC515BF6FFE0EC6157F
:10185800C06FBD51BE11BF11C011D8A436EF0CF036
:1018680038EF0CF01BEF0CF046EF0CF0C22B010E1A
:10187800C327000EC423C523C623D890C633C53357
:10188800C433C333000EC315BD6F000EC415BE6F3D
:10189800000EC515BF6FFF0EC615C06FBD51BE1136
:1018A800BF11C011D8A45BEF0CF05DEF0CF03AEF5C
:1018B8000CF065EF0CF0C207D890C337C437C537B2
:1018C800C637C5BF6AEF0CF06CEF0CF074EF0CF084
:1018D800020EC26172EF0CF074EF0CF05FEF0CF0C7
:1018E800C2B179EF0CF07BEF0CF07CEF0CF0C59FE8
:1018F800D890C233C2C5BDF5BE6BBF6BC06BBDC54A
:10190800C0F5BF6BBE6BBD6BBD51C313BE51C413D5
:10191800BF51C513C051C613C151D8B496EF0CF0CE
:1019280098EF0CF0A0EF0CF0BCBF9FEF0CF09DEF10
:101938000CF0A0EF0CF0C68FC3C5B9F5C4C5BAF555
:10194800C5C5BBF5C6C5BCF51200096E0950D8B4AB
:10195800B0EF0CF0B2EF0CF0D4EF0CF004BEB9EF1E
:101968000CF0B7EF0CF0D4EF0CF001C505F502C58B
:1019780006F503C507F504C508F5051E061E071E6E
:10198800081E052A000E06220722082205C50BF5A7
:1019980006C50CF507C50DF508C50EF5DCEF0CF00E
:1019A80001C50BF502C50CF503C50DF504C50EF50B
:1019B8000150021003100410D8A4E5EF0CF0E7EF73
:1019C8000CF0F1EF0CF0000E016E000E026E000E2E
:1019D800036E000E046E82EF0DF0960E0A6EFBEF9A
:1019E8000CF00A2AD8900E320D320C320B32000E4F
:1019F8000B14056E000E0C14066E000E0D14076E07
:101A0800FE0E0E14086E0550061007100810D8A414
:101A180010EF0DF012EF0DF0F5EF0CF020EF0DF0D8
:101A28000A2A010E0B26000E0C220D220E22D89037
:101A38000E320D320C320B32000E0B14056E000EF6
:101A48000C14066E000E0D14076EFF0E0E14086EB1
:101A58000550061007100810D8A435EF0DF037EF21
:101A68000DF014EF0DF03FEF0DF00A06D8900B368D
:101A78000C360D360E360DBE44EF0DF046EF0DF068
:101A88004EEF0DF0020E0A604CEF0DF04EEF0DF028
:101A980039EF0DF00AB053EF0DF055EF0DF056EF9A
:101AA8000DF00D9ED8900A320AC505F5066A076A38
:101AB800086A05C508F5076A066A056A05500B1223
:101AC80006500C1207500D1208500E120950D8B4C7
:101AD80070EF0DF072EF0DF07AEF0DF004BE79EFB4
:101AE8000DF077EF0DF07AEF0DF00E8E0BC501F5C6
:101AF8000CC502F50DC503F50EC504F51200F1C5B8
:101B0800B9F5F2C5BAF54CEC15F0B9C53AF6BAC54F
:101B18003BF6FE0E0501ED19EE11D8A496EF0DF077
:101B280098EF0DF0B4EF0DF07251F36FF46B0601FE
:101B38003A510501F303F3C4F5F5F4C4F6F5F403DB
:101B4800F350F62706013B510501F303F350F6273E
:101B5800F5518008ED6FF651D8A0E82A0008EE6F1D
:101B6800ED29EE11D8A4BBEF0DF0BDEF0DF0E2EFBB
:101B78000DF07251F36FF46B06013A510501F3034E
:101B8800F3C4F5F5F4C4F6F5F403F350F6270601AB
:101B98003B510501F303F350F627F5518008B96F5F
:101BA800F651D8A0E82A0008BA6FBC6B020EBB6FCA
:101BB800BBEC10F0B9C5EDF5BAC5EEF50601396B09
:101BC800000E386F17EF0EF005017251F36FF46BCA
:101BD800060138510501F303F3C4F5F5F4C4F6F52D
:101BE800F403F350F627060139510501F303F350C6
:101BF800F627ED51F525C56FEE51F621C66FEFC5F5
:101C0800C7F5F0C5C8F5F1C5F6F4F2C5F7F4F86AFA
:101C18000800F5C4C9F50FEC00F00501F14BF22BF3
:101C28000601384B392B3A51385D3B513959D8A008
:101C380020EF0EF022EF0EF0E8EF0DF012005250F8
:101C4800020D600EF324D96E050EF420DA6EDE6AFA
:101C5800DD6A0201B2A733EF0EF035EF0EF054EF54
:101C68000EF05250020D600EF324D96E050EF420CA
:101C7800DA6EDF82050197519811D8B446EF0EF05D
:101C880048EF0EF054EF0EF002D854EF0EF00500B6
:101C9800FA6E9751FD6E9851FE6EFF6AFA50120067
:101CA8000201B2A35AEF0EF05CEF0EF07BEF0EF0DC
:101CB8005250020D600EF324D96E050EF420DA6E30
:101CC800DF84050195519611D8B46DEF0EF06FEFD2
:101CD8000EF07BEF0EF002D87BEF0EF00500FA6EE7
:101CE8009551FD6E9651FE6EFF6AFA501200020180
:101CF800B2AD81EF0EF083EF0EF0A2EF0EF052506E
:101D0800020D600EF324D96E050EF420DA6EDF8022
:101D1800050193519411D8B494EF0EF096EF0EF09C
:101D2800A2EF0EF002D8A2EF0EF00500FA6E935162
:101D3800FD6E9451FE6EFF6AFA501200A1C201F5C1
:101D48005228070B026E51500218D8A4AEEF0EF0BD
:101D5800B0EF0EF0B2EF0EF0BDEF0EF0200E5224F1
:101D6800D96EDA6A060EDA2201C5DFF402C552F529
:101D7800502A12000501BABFC4EF0EF0C6EF0EF0EC
:101D88004DEF0FF0BABFD4EF0EF0BA5107E1800E55
:101D9800B95DD8B0D2EF0EF0D4EF0EF04DEF0FF0E2
:101DA800BCBFD9EF0EF0DBEF0EF04DEF0FF0BCBF6C
:101DB800E7EF0EF0BC5109E1400EBB5DD8A0E7EF9C
:101DC8000EF0E9EF0EF0EBEF0EF04DEF0FF0BBC5A4
:101DD800BEF5BCC5BFF5BF35BF33BE33BF35BF3356
:101DE800BE33BF35BF33BE33BEC5C0F5BFC5C1F5B1
:101DF800C0C5BEF5C1C5BFF5070ED890BE37BF3701
:101E0800E82E01EF0FF0B951BE25C26FBA51BF21BC
:101E1800C36FBBC5BEF5070EBE17010EBF6FBE2B45
:101E280018EF0FF0D890BF37BE2F16EF0FF005014F
:101E3800BF51C46FBD05D8A424EF0FF026EF0FF0F3
:101E480030EF0FF03C0EC225D96E060EC321DA6EB4
:101E5800C451DF124DEF0FF0BD51D8A436EF0FF08B
:101E680038EF0FF045EF0FF0C451FF0ABE6F3C0E7C
:101E7800C225D96E060EC321DA6EBE51DF164DEFAC
:101E88000FF03C0EC225D96E060EC321DA6EC4517E
:101E9800DF1A12000501BB35BC35C26FC251D8A488
:101EA80058EF0FF05AEF0FF064EF0FF0000EB96F14
:101EB800000EBA6F000EBB6F000EBC6FD1EF0FF0B3
:101EC800B9C5BDF5BAC5BEF5BBC5BFF5BCC5C0F53E
:101ED800200E74EF0FF0D890C033BF33BE33BD333C
:101EE800E82E6FEF0FF0BD51C16FBB8FFF0EB91712
:101EF800FF0EBA17FF0EBB17000EBC17960EC25F77
:101F0800C2BF8BEF0FF089EF0FF0A1EF0FF0C251B6
:101F1800800A970FD8B093EF0FF095EF0FF097EF77
:101F28000FF05AEF0FF0D890BC33BB33BA33B93344
:101F3800C23F97EF0FF0B9EF0FF01F0EC265A7EF82
:101F48000FF0A9EF0FF0B1EF0FF05AEF0FF0D890A4
:101F5800B937BA37BB37BC37C207C251D8A4B7EFB5
:101F68000FF0B9EF0FF0ABEF0FF0C151D8B4BFEFDE
:101F78000FF0C1EF0FF0C9EF0FF0BC1FBB1FBA1F66
:101F8800B96D000EBA23BB23BC23B9C5B9F5BAC5D0
:101F9800BAF5BBC5BBF5BCC5BCF51200210ECDEC2E
:101FA80016F0000ECDEC16F07F0ECDEC16F0220EDA
:101FB800CDEC16F0000ECDEC16F0070ECDEC16F0B9
:101FC800400E0501D36F040EE76F000EE66FEC6B51
:101FD800000EEB6F4AEF10F0EB51E65DE86FEC5145
:101FE800E759E96FE95107E1110EE85DD8B0FFEF55
:101FF8000FF001EF10F007EF10F0E8C5E4F5E9C5C0
:10200800E5F50AEF10F0E56B100EE46FE4C5EAF5AC
:10201800ED6B2DEF10F03C0ECF6F060ED06FED512B
:10202800CF27000ED023EB51CF25D96EEC51D0210C
:10203800DA6EED51D16FD26B010ED127000ED2238B
:10204800D30ED125E16E050ED221E26EDFC4E7F48E
:10205800ED2BEA51ED5DD8A034EF10F036EF10F01B
:102068000FEF10F0C26B3C0EC16FD30EC36F050E9D
:10207800C46F010EEA25C56FC66B000EC6237CEC43
:1020880011F00501EA51EB27000EEC23E651EB5D58
:10209800E751EC59D8A053EF10F055EF10F0F0EFDE
:1020A8000FF0120006500710D8B45DEF10F05FEF84
:1020B80010F068EF10F006500710D8A466EF10F083
:1020C80068EF10F06DEF10F0045092EC17F0BAEFD3
:1020D80010F020EE09F00650D9260750DA22DE501B
:1020E800DE10D8B47AEF10F07CEF10F097EF10F014
:1020F80020EE09F00650D9260750DA2210EE02F039
:102108000650E1260750E222DE50E65CE650800ADF
:102118000C6EDE50800A0C58D8B095EF10F097EF8F
:1021280010F0BAEF10F020EE02F00650D926075052
:10213800DA22DEC408F5DDC409F506C5D9F407C5F9
:10214800DAF4DEC40AF5DDC40BF508500A24D96EAA
:1021580009500B20DA6E04C5DFF420EE02F00650B9
:10216800D9260750DA22DE2A000EDD2212000501E8
:10217800BE6BBCBFC4EF10F0C2EF10F0CAEF10F096
:10218800BB6DBC1FD8B0BC2B010EBE6FBABFD1EF60
:1021980010F0CFEF10F0D7EF10F0B96DBA1FD8B02C
:1021A800BA2B010EBE1BC06B000EBF6FBB51BC111A
:1021B800D8B4E1EF10F0E3EF10F00BEF11F0010EDF
:1021C800BD6FEBEF10F0D890BB37BC37BD2BBCAF61
:1021D800F0EF10F0F2EF10F0E7EF10F0D890BF3703
:1021E800C037BB51B95DBC51BA59D8A0FEEF10F049
:1021F80000EF11F005EF11F0BB51B95FBC51BA5BAC
:10220800BF81D890BC33BB33BD2FF2EF10F0BE5165
:10221800D8B411EF11F013EF11F017EF11F0BF6DF3
:10222800C01FD8B0C02BBFC5B9F5C0C5BAF51200DC
:10223800090E0501EF6F1E0EEE6FE40EE82EFED7B5
:10224800EE2FFCD7EF2FFAD70000AE0ECDEC16F02C
:10225800D50ECDEC16F0800ECDEC16F0A80ECDEC18
:1022680016F03F0ECDEC16F0D30ECDEC16F0000EA6
:10227800CDEC16F0400ECDEC16F08D0ECDEC16F030
:10228800140ECDEC16F0200ECDEC16F0000ECDECB1
:1022980016F0A10ECDEC16F0C80ECDEC16F0DA0E45
:1022A800CDEC16F0120ECDEC16F0810ECDEC16F03A
:1022B800CF0ECDEC16F0D90ECDEC16F0F10ECDEC1C
:1022C80016F0DB0ECDEC16F0400ECDEC16F0A40E99
:1022D800CDEC16F0A60ECDEC16F02E0ECDEC16F0C9
:1022E800AF0ECDEC16F083EC17F0D2EC0FF0120025
:1022F800E80E0501C86F030EC96F000ECA6F000E05
:10230800CB6FC1C5BAF5C2C5BBF5C3C5BCF5C4C55D
:10231800BDF5C5C5BEF5C6C5BFF567EC14F0000927
:10232800D8A499EF11F09BEF11F0ACEF11F0D2EFB8
:1023380011F0150E0501C76FC60EE82EFED7C72F80
:10234800FCD700000501C807000EC95BCA5BCB5B60
:1023580085EC16F00009D8B4B4EF11F0B6EF11F01F
:10236800C2EF11F00501C851C911CA11CB11D8A487
:10237800C0EF11F0C2EF11F09DEF11F00501C85147
:10238800C911CA11CB11D8A4CCEF11F0CEEF11F0BE
:10239800D0EF11F0D2EF11F017EC18F01200BE6A6E
:1023A800C00EBF6EC06A0401026BC00E0A6F126BCA
:1023B8001B0EC66E300EC76E6A0EC86E070E006F13
:1023C800300E086F3D0E106F100E016F096B020E74
:1023D800116F370E036FF00E0B6F13693F0E046F0A
:1023E800F00E0C6F14690201876B010E866F160ED2
:1023F800726F0C0E156F100E186F0A0E116F0F0EFC
:10240800716F210E106F0E0E706F220E0F6F040188
:10241800056B100E066F076B0D6B0E6B0F6B020EC4
:10242800156F166B176B060E0501B96F310EBA6F73
:102438004AEC18F0080E0501B96F310EBA6F4FEC6F
:1024480018F0A88E1200AC90460E0501A76F1C0E5E
:10245800A86FAC92700EA96F2C0EAA6FAC96E00E06
:10246800A56F300EA66F0201A26BA46BA56BA66BBD
:10247800A76BA86BA96BAA6BB00EAB6F800EAC6F85
:10248800080EAD6FA00EAE6F010EAF6F2E0EB06FBF
:10249800B16B800EB26FB36BFC0E0501B96F300ED5
:1024A800BA6F74EC17F0FA0E0501B96F300EBA6FF7
:1024B80065EC17F0F80E0501B96F300EBA6F56ECDF
:1024C80017F005019A6B000E996F556A546A080E49
:1024D800536E526A516A506AAC80AC86120002018F
:1024E80097AB79EF12F07BEF12F082EF12F0030E48
:1024F8003A6E979B6CEC15F0B9EF12F098A787EF3E
:1025080012F089EF12F097EF12F095AB8EEF12F000
:1025180090EF12F097EF12F0010E3A6E9799949D92
:102528009587B9EF12F098A79CEF12F09EEF12F082
:10253800ACEF12F095ABA3EF12F0A5EF12F0ACEFF1
:1025480012F0020E3A6E9799949D9587B9EF12F0A2
:1025580097ADB1EF12F0B3EF12F0B8EF12F0030E2F
:102568003A6E979DB9EF12F097993A50120002010E
:102578009BA5C1EF12F0C3EF12F0CEEF12F09AA5AF
:10258800C8EF12F0CAEF12F0CEEF12F00BEC17F012
:10259800FFEF12F09BAFD3EF12F0D5EF12F0EFEF91
:1025A80012F09AAFDAEF12F0DCEF12F0EFEF12F060
:1025B8003950D8B4E2EF12F0E4EF12F0EBEF12F07A
:1025C800396A9A919A9FF7EC16F0FFEF12F0949DF2
:1025D8009587CAEF12F09BA3F4EF12F0F6EF12F012
:1025E800FFEF12F09AA3FBEF12F0FDEF12F0FFEFEE
:1025F80012F0949D9A9312006A0EF66E090EF76E09
:10260800000EF86E01EE3CF211EE00F00900F5C480
:10261800EEF4E550E150FAE1E250F8E1F60EF66E1C
:10262800300EF76E000EF86E0900F5C4FBF50900D0
:10263800F5C4FCF50A0EF66E310EF76E000EF86E54
:102648000900F5C45AF501EE00F2380EEE6AE80604
:10265800FDE101EE60F1590EEE6AE806FDE101EEDA
:102668002EF12C0EEE6AE806FDE10401080E5D6FFE
:10267800000E5E6F000E5F6F00017CEF08F0B9C5B9
:1026880070F5BAC571F5B9C5F6F4BAC5F7F4F86AC4
:102698000800F5C472F5010E0501B925BB6F000EDF
:1026A800BA21BC6FBBC5F6F4BCC5F7F4F86A0800DC
:1026B800F5C473F5020EB925BB6F000EBA21BC6FC5
:1026C800BBC5F6F4BCC5F7F4F86A0800F5C474F5A0
:1026D800030EB925BB6F000EBA21BC6FBBC5F6F45B
:1026E800BCC5F7F4F86A0800F5C475F5766B1200F6
:1026F800606A020E616E626A6368F90E646E656AEA
:10270800666A676A686A010E6A6E6B6A7D0E6C6E2D
:102718006D6A7D0E6E6EB79CB79E67906792AC9E91
:10272800AC9C000E0501B96F000EBA6F40EC18F0B2
:10273800000E0501B96F000EBA6F3BEC18F0000EE1
:102748000501B96F000EBA6F45EC18F0800E696E7E
:1027580012006F6A020E706E716A7268F90E736EFB
:10276800746A756A766A776A796A7A6A7D0E7B6EA8
:102778007C6A7D0E7D6EB89CB89E76907692AD9EF2
:10278800AD9C000E0501B96F000EBA6F31EC18F060
:10279800000E0501B96F000EBA6F2CEC18F0000E90
:1027A8000501B96F000EBA6F36EC18F0800E786E1E
:1027B80012003BC501F53CC502F507EC15F0050113
:1027C8009B4B9C2B9C5109E14B0E9B5DD8A0EFEFD6
:1027D80013F0F1EF13F00AEF14F09F51A011D8B4E1
:1027E800F8EF13F0FAEF13F006EF14F002D806EF43
:1027F80014F00500FA6E9F51FD6EA051FE6EFF6A3F
:10280800FA50120005019C6B000E9B6FB6981200DF
:102818000301F39FD96BDA6BDB6BDC6BDF6BE06B6F
:10282800E56BE76B120EEC6FEE6BEF6BD86BF06B32
:10283800F16BF26BF46B180EF56F100EF66FF76B09
:10284800F86B1F0EFA6FF96B000E0501AF6F000EE3
:10285800B06F000EAD6F000EAE6F566AB494A994B7
:10286800B590AA90C40E0301F36F1200040E020182
:10287800946F800E956F080E966F010E9E6F9A6B7F
:102888009B6B976B8C6B8D6B1F0E9D6F9F6B510EA7
:10289800866FC2EC17F002019B919B95948F050EF1
:1028A800E82EFED700000000000000000000000035
:1028B800000002019A919A959B85000E0501AB6F65
:1028C800000EAC6F12000501C06B85EC16F0000914
:1028D800D8A471EF14F073EF14F08FEF14F0010E19
:1028E8002E6EBAC52FF5BBC530F5396ABCC531F5B2
:1028F800BDC532F5BEC533F5BFC534F5000E356E1E
:10290800000E366E386A000E376E3A6AA9EC15F07A
:10291800010E0501C06F0501C05112006CEC18F0E2
:10292800596E000E0F6E000E106E7A0E116E440E68
:10293800126E5950016E026A036A046A000EA9EC0D
:102948000CF001C513F502C514F503C515F504C54A
:1029580016F5B5EC06F00FC5B1F510C5B2F511C501
:10296800B3F512C5B4F5000E68EC18F012001AC5DC
:102978001EF51BC51FF5CFEF14F018C50DF519C5C9
:102988000EF51E0E0F6E050E106E1CC511F51DC539
:1029980012F5DDEC0AF01EC5F6F41FC5F7F4F86A67
:1029A8000800F5500009D8A4DCEF14F0DEEF14F0AD
:1029B800C1EF14F0196A000E186E1200026EACB264
:1029C800E8EF14F0EAEF14F0EEEF14F002C5A3F20A
:1029D80005EF15F05350D8B4F4EF14F0F6EF14F0F7
:1029E80005EF15F0280E5524D96EDA6A060EDA229C
:1029F80002C5DFF45528070B016E01C555F5AC92E9
:102A08005306AC821200030114A50DEF15F00FEF69
:102A180015F025EF15F014B114EF15F017EF15F0B8
:102A2800010E18EF15F0000E036E0250136F01C56A
:102A380012F303B002D0149102D00301148129EFDC
:102A480015F00250136F01C512F31200030114911F
:102A5800156B166B010E176F630E136FBF0E126F97
:102A680013510501B96F030112513B6EB9C53CF50D
:102A7800020E05019F6F310EA06F000E9D6F000EB4
:102A88009E6FB698AB88B69A370E0301146F120082
:102A9800B9C5BBF5BAC5BCF555EF15F00501B94B7D
:102AA800BA2BB9C5F6F4BAC5F7F4F86A0800F550B8
:102AB8000009D8A462EF15F064EF15F052EF15F095
:102AC8000501BB51B95DB96FBC51BA59BA6F120053
:102AD80002019A6B979B979D9799FDEC17F002015D
:102AE800996B9985949FEAEC17F002019B919B954D
:102AF800948F050EE82EFED70000000000000000AD
:102B080000000000000002019A919A959B8512002E
:102B1800D69AB490D690000E0501B96F000EBA6F20
:102B28005EEC18F0B990D682000E0501B96F000E60
:102B3800BA6F59EC18F0BD90D684000E0501B96F34
:102B4800000EBA6F54EC18F0120033503410D8B499
:102B5800B0EF15F0B2EF15F0C0EF15F034500201E8
:102B68008D6F33C58CF23950D8B4BDEF15F0BFEF77
:102B780015F0C0EF15F0948D2F502F2402018F6FA0
:102B8800948B1200B9C5BFF5BAC5C0F5D4EF15F0DE
:102B9800BFC5D9F4C0C5DAF4BBC5DFF4BF4BC02B41
:102BA8000501BD07D8A0BE07BD2906E1BE29D8A4E6
:102BB800E0EF15F0E2EF15F0CCEF15F0120005018B
:102BC800BD6FBDC5ECF30301F39DF381F3B1EFEFE6
:102BD80015F0F1EF15F0EAEF15F0EB510501BC6FB8
:102BE800BB6B0301EA510501BB25B96F0301000E58
:102BF8000501BC21BA6F1200BEBA05EF16F008EF46
:102C080016F0010E09EF16F0000EFF0A266E263A9E
:102C18002646BE502618DF0B2618BE6EFA0E206E0A
:102C2800FF0E216E300E226E060E236E32EC17F068
:102C38001200CCEC17F0D3EC11F00CEC14F03AECD9
:102C480014F045EC17F02AEC15F01FEC17F005EC22
:102C580018F0B8EC17F07CEC13F0ADEC13F027EC9F
:102C680012F08CEC15F01200080E53603EEF16F0CF
:102C780040EF16F051EF16F0280E5424D96EDA6A98
:102C8800060EDA22DF500201A36F5428070B016EEB
:102C980001C554F5532A52EF16F0AC921200050103
:102CA800F951FA11D8B45BEF16F05DEF16F069EF41
:102CB80016F002D869EF16F00500FA6EF951FD6EAC
:102CC800FA51FE6EFF6AFA501200040107991200C9
:102CD8000501F751F811D8B474EF16F076EF16F035
:102CE80082EF16F002D882EF16F00500FA6EF7515F
:102CF800FD6EF851FE6EFF6AFA5012000401179338
:102D08001200010E0501B96F2E50D8A48EEF16F0EF
:102D180090EF16F09AEF16F0020198AF96EF16F0C2
:102D280098EF16F09AEF16F00501B96B0501B95145
:102D380012000501A351A411D8B4A5EF16F0A7EF0E
:102D480016F0B3EF16F002D8B3EF16F00500FA6EDE
:102D5800A351FD6EA451FE6EFF6AFA501200B6969A
:102D680012000501A151A211D8B4BDEF16F0BFEFB2
:102D780016F0CBEF16F002D8CBEF16F00500FA6E7E
:102D8800A151FD6EA251FE6EFF6AFA501200B69E66
:102D980012000501CC6F0501CE6B000ECD6FCCC5BE
:102DA800CEF5C26B3C0EC16FCD0EC36F050EC46F5E
:102DB800C66B020EC56F7CEC11F01200040107A966
:102DC800E8EF16F0EAEF16F0ECEF16F053EC16F019
:102DD800040117A3F2EF16F0F4EF16F0F6EF16F071
:102DE8006CEC16F0120037503810D8B4FEEF16F01D
:102DF80000EF17F005EF17F0385002018D6F37C557
:102E08008CF2D8802F3402018F6F948B12002E6AB7
:102E1800000E306E2F68000E316E000E326E000EFE
:102E2800356E000E366E02019A6B979B979D9799A7
:102E3800996B99851200010E0301206F1F6B216B9E
:102E48007C0E1D6F1C6BFE0E0501A36F300EA46F68
:102E5800B696AB86F00E03011E6F1200220E246E8A
:102E6800050E256E000E186E000E196E20C51AF597
:102E780021C51BF5240E1C6E050E1D6EBBEC14F04F
:102E88001200F30E0301196F186B5E0E1B6F040E10
:102E98000501A16F310EA26FB69EAB8E800E0301A5
:102EA8001A6F12000501B951BA11D8B45EEF17F0C4
:102EB80060EF17F064EF17F0B9C593F5BAC594F54C
:102EC80012000501B951BA11D8B46DEF17F06FEFC0
:102ED80017F073EF17F0B9C595F5BAC596F5120056
:102EE8000501B951BA11D8B47CEF17F07EEF17F08D
:102EF80082EF17F0B9C597F5BAC598F512003C0EE0
:102F08000501B96F060EBA6FBC6B000EBB6F040EDD
:102F1800BE6F000EBD6FC6EC15F01200036EADEC6F
:102F280017F00009D8B49BEF17F09DEF17F093EF57
:102F380017F00350E2EC14F012005A04D8A4A7EFDB
:102F480017F0AAEF17F0010EABEF17F0000E5A6E4C
:102F580012005350D8A4B3EF17F0B6EF17F0010ED4
:102F6800B7EF17F0000E12000001A46B020EA56F58
:102F7800A66BA76BA96B880EA36F1200AF84AF86F0
:102F8800AF80AF8202019B859B839B8F9781120044
:102F9800600E0001AD6FAF6BB36B080EB16FB06B15
:102FA800AC6B1200000E0501B16F000EB26F000E7F
:102FB800B36F000EB46F120031C5D9F432C5DAF41C
:102FC800DF5002018B6F314A322A1200AF84AF867C
:102FD800AF80AF8202019B859B839B8F97811200F4
:102FE80035C5D9F436C5DAF48AC2DFF4354A362A4B
:102FF8001200AF94AF96AF90AF9202019B6B976BA4
:103008001200A00E00017F6FA90E7D6F1200C3C5CC
:103018007AF40501C4517B6E1200C3C56BF4050137
:10302800C4516C6E12003AC5B9F53A6A0501B95136
:103038001200B9C5A3F5BAC5A4F51200B9C59FF524
:10304800BAC5A0F51200B9C5A1F5BAC5A2F5120016
:10305800B9C545F5BAC546F51200B9C547F5BAC5AB
:1030680048F51200B9C543F5BAC544F51200B9C50B
:103078004BF5BAC54CF51200B9C54DF5BAC54EF5B4
:103088001200B9C549F5BAC54AF51200B9C5F9F52E
:10309800BAC5FAF51200B9C5F7F5BAC5F8F51200C0
:1030A800B9C53DF5BAC53EF51200B9C53FF5BAC573
:1030B80040F51200B9C541F5BAC542F5120005013F
:1030C800C36FC3C57DF01200016E01C518F312006D
:1030D80018C301F5015012000201B19F1200788453
:1030E800120069841200B5901200B49412004000D6
:1030F8001200120012001200120012001200120038
:03310800120001B1
:10F79C00000810205F0000000000000000000000C6
:10F7AC000000000000000000F80000000000000055
:10F7BC00333000000000100C06100C060000000096
:10F7CC00000000000040C07840C0784000043F04B6
:10F7DC00043F040400007088FC083000000018206E
:10F7EC00FF211E0000F008F000E018000000211CB2
:10F7FC00031E211E0000F00888700000001E21234B
:10F80C00241927211010160E000000000000000023
:10F81C000000000000000000E018040200000000DE
:10F82C00071820400000020418E0000000004020EF
:10F83C001807000000404080F080404000020201A8
:10F84C000F01020200000000F000000000010101A5
:10F85C001F01010100000000000000000080B070DA
:10F86C00000000000000000000000000000001018A
:10F87C000101010101000000000000000000303017
:10F88C0000000000000000000080601804006018F8
:10F89C00060100000000E010080810E000000F1046
:10F8AC002020100F00001010F80000000000202095
:10F8BC003F202000000070080808887000003028E5
:10F8CC00242221300000300888884830000018209D
:10F8DC002020110E000000C02010F80000000704CA
:10F8EC0024243F240000F808888808080000192107
:10F8FC002020110E0000E0108888180000000F1165
:10F90C002020110E0000380808C83808000000003C
:10F91C003F000000000070880808887000001C225E
:10F92C002121221C0000E010080810E0000000312A
:10F93C002222110F00000000C0C0000000000000D7
:10F94C00303000000000000080000000000000804B
:10F95C006000000000000080402010080000010240
:10F96C000408102000404040404040400004040483
:10F97C000404040400000810204080000000201043
:10F98C000804020100007048080808F0000000009C
:10F99C003036010000C030C828E810E000071827F6
:10F9AC002423140B000000C038E0000000203C238E
:10F9BC00020227382008F8888888700000203F2031
:10F9CC002020110E00C03008080808380007182045
:10F9DC00202010080008F808080810E000203F203C
:10F9EC002020100F0008F88888E8081000203F201D
:10F9FC00202320180008F88888E8081000203F20F1
:10FA0C000003000000C03008080838000007182068
:10FA1C0020221E020008F808000008F808203F21E8
:10FA2C000101213F20000808F808080000002020F0
:10FA3C003F2020000000000808F8080800C0808063
:10FA4C00807F00000008F888C028180800203F209C
:10FA5C00012638200008F8080000000000203F2094
:10FA6C00202020300008F8F800F8F80800203F00AB
:10FA7C003F003F200008F830C00008F808203F2065
:10FA8C000007183F00E01008080810E0000F1020D5
:10FA9C002020100F0008F808080808F000203F216B
:10FAAC000101010000E01008080810E0000F182404
:10FABC002438504F0008F8888888887000203F2030
:10FACC0000030C302000708808080838000038202B
:10FADC002121221C00180808F80808180000002032
:10FAEC003F2000000008F808000008F808001F205C
:10FAFC002020201F000878880000C8380800000764
:10FB0C00380E010000F80800F80008F800033C0764
:10FB1C0000073C0300081868808068180820302C07
:10FB2C0003032C30200838C800C838080000002017
:10FB3C003F2000000010080808C8380800203826AC
:10FB4C002120201800000000FE020202000000002C
:10FB5C007F40404000000C30C0000000000000005E
:10FB6C00010638C00000020202FE00000000404006
:10FB7C00407F0000000000040202020400000000AC
:10FB8C0000000000000000000000000000808080E9
:10FB9C0080808080800002020400000000000000D1
:10FBAC00000000000000008080808000000019240C
:10FBBC002222223F2008F8008080000000003F1124
:10FBCC002020110E000000008080800000000E112B
:10FBDC002020201100000000808088F800000E1109
:10FBEC002020103F200000808080800000001F2219
:10FBFC002222221300008080F088888818002020A0
:10FC0C003F202000000000808080808000006B94EA
:10FC1C00949493600008F8008080800000203F21BD
:10FC2C000000203F20008098980000000000202059
:10FC3C003F20200000000000809898000000C08049
:10FC4C0080807F000008F8000080808000203F2426
:10FC5C00022D302000000808F800000000002020D1
:10FC6C003F202000008080808080808000203F200A
:10FC7C00003F20003F8080008080800000203F21DA
:10FC8C000000203F200000808080800000001F20AA
:10FC9C002020201F00808000808000000080FFA1B9
:10FCAC002020110E000000008080808000000E11CA
:10FCBC002020A0FF80808080008080800020203F5A
:10FCCC00212000010000008080808080000033240F
:10FCDC002424241900008080E080800000000000B3
:10FCEC001F202000008080000000808000001F206A
:10FCFC002020103F20808080000080808000010E3A
:10FD0C00300806010080800080008080800F300C5D
:10FD1C00030C300F000080800080808000002031B8
:10FD2C002E0E312000808080000080808080818EAB
:10FD3C0070180601000080808080808000002130D7
:10FD4C002C2221300000000000807C020200000008
:10FD5C0000003F404000000000FF000000000000D9
:10FD6C0000FF0000000002027C8000000000404008
:10FD7C003F00000000000601010202040400000024
:10FD8C00000000000074280000CE280000000000D5
:10FD9C00002E300A2D000000001027E80364000A32
:10FDAC000001000608205F000000000000000000B9
:10FDBC002F000000000700070000147F147F1400C0
:10FDCC00242A7F2A12002313086462003649552224
:10FDDC005000000503000000001C224100000041FF
:10FDEC00221C000014083E08140008083E080800F5
:10FDFC000000A0600000080808080800006060000F
:10FE0C0000002010080402003E5149453E0000420B
:10FE1C007F4000004261514946002141454B310071
:10FE2C001814127F10002745454539003C4A4949B2
:10FE3C00300001710905030036494949360006496D
:10FE4C0049291E000036360000000056360000001E
:10FE5C00081422410000141414141400004122143C
:10FE6C000800020151090600324959513E007C122A
:10FE7C0011127C007F49494936003E414141220024
:10FE8C007F4141221C007F49494941007F090909F2
:10FE9C0001003E4149497A007F0808087F00004173
:10FEAC007F4100002040413F01007F0814224100A7
:10FEBC007F40404040007F020C027F007F0408100E
:10FECC007F003E4141413E007F09090906003E4149
:10FEDC0051215E007F0919294600464949493100E4
:10FEEC0001017F0101003F4040403F001F204020A6
:10FEFC001F003F4038403F0063140814630007089C
:10FF0C0070080700615149454300007F41410000E2
:10FF1C00552A552A55000041417F00000402010278
:10FF2C000400404040404000000102040000205406
:10FF3C00545478007F4844443800384444442000EA
:10FF4C00384444487F00385454541800087E090142
:10FF5C00020018A4A4A47C007F08040478000044C8
:10FF6C007D4000004080847D00007F10284400000C
:10FF7C0000417F4000007C04180478007C080404D5
:10FF8C007800384444443800FC24242418001824F5
:10FF9C002418FC007C080404080048545454200025
:10FFAC00043F444020003C4040207C001C2040206A
:10FFBC001C003C4030403C004428102844001CA04D
:10FFCC00A0A07C004464544C44000008770000005E
:10FFDC0000007F00000000770800000010081008E7
:10FFEC000014141414141400436F6C6C610025730A
:03FFFC000A0000F8
:020000040030CA
:090000008CFFF7FF9FFFFFFFFFDB
:00000001FF
